:0400000007EF00F016
:100008002E8289ED00F025EF01F00102040810228C
:100018004080000000000000000000000000000018
:1000280000000000000000000000000000000000C8
:1000380000000000000000000000000000000000B8
:1000480000000000000000000000000000000000A8
:100058000000000000000000000000000000000098
:100068000000000000000000000000000000000088
:100078000000000000000000000000000000000078
:100088000000000000000000000000000000000068
:100098000000000000000000000000000000000058
:1000A8000000000000000000000000000000000048
:1000B8000000000000000000000000000000000038
:1000C8000000000000000000000000000000000028
:1000D8000000000000000000000000000000000018
:1000E8000000000000000000000000000000000008
:1000F80000000000000000000000000000000000F8
:10010800000000000000000000000600FACF04F024
:10011800FBCF05F0E9CF06F0EACF07F0E1CF08F012
:10012800E2CF09F0D9CF0AF0DACF0BF0F3CF0CF019
:10013800F4CF0DF0F6CF0EF0F7CF0FF0F8CF10F0A8
:10014800F5CF11F02EC012F02FC013F030C014F00C
:1001580031C015F09EAA05D0CDEC01F02850D7EC9F
:1001680001F015C031F014C030F013C02FF012C0E8
:100178002EF011C0F5FF10C0F8FF0FC0F7FF0EC03A
:10018800F6FF0DC0F4FF0CC0F3FF0BC0DAFF0AC086
:10019800D9FF09C0E2FF08C0E1FF07C0EAFF06C0B7
:1001A800E9FF05C0FBFF04C0FAFF2E92110018C03A
:1001B80020F019C021F0000E236E000E226E23BE1F
:1001C80006D0235031E17A0E225CD8B02DD020C061
:1001D800D9FF21C0DAFFDF50896E000E1B6E3C0E7E
:1001E8001A6E1A06D8A01B061A28FBE11B28D8A4E9
:1001F800F8D7000E896E000E1D6E3C0E1C6E1C0694
:10020800D8A01D061C28FBE11D28D8A4F8D720C0BB
:1002180016F021C017F084EC01F016C020F017C0CA
:1002280021F0224A232ACBD7000E1F6E640E1E6EC1
:100238001E06D8A01F061E28FBE11F28D8B41200EE
:10024800F7D7120EF66E000EF76E000EF86E01EE7E
:1002580000F011EE00F00900F5CFEEFFE550E15097
:10026800FAE1E250F8E1B60EF66E030EF76E000EF4
:10027800F86E00EE2AF010EE04F00900F5CFEEFF5C
:10028800E550E150FAE1296A286A276A266A2E9021
:100298002E92000150EF01F0D3508F0B6009D36EFE
:1002A800000E956E000E926EBCEC01F0D3EC01F0DE
:1002B800000E246E010E256E24C016F025C017F01E
:1002C80071EC01F016C024F017C025F024C018F016
:1002D80025C019F0DBEC00F0EFD72A50161809E119
:1002E8002B501718D8A405D0000E166E010E176EE5
:1002F8001200010E1624166E000E1720176E12003B
:10030800000E161809E1010E1718D8A405D02AC046
:1003180016F02BC017F01200FF0E1624166EFF0EF3
:100328001720176E12002A50011809E12B500218E5
:10033800D8A405D0000E016E010E026E1200010E47
:100348000124016E000E0220026E1200036E2CC002
:10035800D9FF2DC0DAFF03C0DFFF2CC001F02DC08C
:1003680002F097EC01F001C02CF002C02DF0120051
:10037800948C948EB896AC84190EAF6EAC98AB8EF4
:100388009E889E9AAC8AAB889D989F889D8A9F8AF2
:100398001200AECF28F02850AAEC01F01200D08E3F
:1003A800F28EF28C1200016E01C0ADFF1200FF0147
:0203B80008013A
:020000040020DA
:08000000FFFFFFFFFFFFFFFF00
:020000040030CA
:0E000000FF881F00FF8381FF0FC00FE00F403D
:00000001FF
