:0400000063EF00F0BA
:060008003A82E2ED00F077
:100018003A80D8CF16F0E8CF17F0E0CF18F0FACF33
:1000280019F0FBCF1AF0E9CF1BF0EACF1CF0E1CFB3
:100038001DF0E2CF1EF0D9CF1FF0DACF20F0F3CFBA
:1000480021F0F4CF22F0F6CF23F0F7CF24F0F8CF49
:1000580025F0F5CF26F03AC027F03BC028F03CC089
:1000680029F03DC02AF02AC03DF029C03CF028C044
:100078003BF027C03AF026C0F5FF25C0F8FF24C0A2
:10008800F7FF23C0F6FF22C0F4FF21C0F3FF20C012
:10009800DAFF1FC0D9FF1EC0E2FF1DC0E1FF1CC070
:1000A800EAFF1BC0E9FF1AC0FBFF19C0FAFF18C01E
:1000B800E0FF17C0E8FF16C0D8FF3A901000A7EF7E
:1000C80001F057656C636F6D6520746F2054726121
:1000D8006E734C6F7665203C33203C33203C3300F4
:1000E8000000000000000000000000000000000008
:1000F80000000000000000000000000000000000F8
:1001080000000000000000000000000000000000E7
:1001180000000000000000000000000000000000D7
:1001280000000000000000000000000000000000C7
:1001380000000000000000000000000000000000B7
:1001480000000000000000000000000000000000A7
:100158000000000000000000000000000000000097
:100168000000000000000000000000000000000087
:100178000000000000000000000000000000000077
:100188000000000000000000000000000000000067
:100198000000000000000000000000000000000057
:1001A8000000000000000000000000000000000047
:1001B8000000000000000000000000000600FACF68
:1001C80004F0FBCF05F0E9CF06F0EACF07F0E1CF66
:1001D80008F0E2CF09F0D9CF0AF0DACF0BF0F3CF6D
:1001E8000CF0F4CF0DF0F6CF0EF0F7CF0FF0F8CFFC
:1001F80010F0F5CF11F03AC012F03BC013F03CC03C
:1002080014F03DC015F09EAA06D0AB5047EC02F0A2
:10021800395051EC02F015C03DF014C03CF013C049
:100228003BF012C03AF011C0F5FF10C0F8FF0FC044
:10023800F7FF0EC0F6FF0DC0F4FF0CC0F3FF0BC0B4
:10024800DAFF0AC0D9FF09C0E2FF08C0E1FF07C012
:10025800EAFF06C0E9FF05C0FBFF04C0FAFF3A92B7
:10026800110037C031F038C032F0000E346E000E85
:10027800336E34BE06D034502FE1FA0E335CD8B05A
:10028800120031C0D9FF32C0DAFFDF50896E000E8C
:100298002E6E320E2D6E2D06D8A02E062D28FBE1CF
:1002A8002E28D8A4F8D7000E306E320E2F6E2F06E7
:1002B800D8A030062F28FBE13028D8A4F8D731C0C1
:1002C8002BF032C02CF0CDEC01F02BC031F02CC05B
:1002D80032F0334A342ACDD712008968C80E2B6E03
:1002E800000E2C6E000E2D6E000E2E6EFF0E2B26AD
:1002F800FF0E2C22FF0E2D22FF0E2E222B28F6E1B8
:100308002C28F4E12D28F2E12E28D8A4EFD7000EEE
:10031800896E500E2F6E460E306E000E316E000E36
:10032800326EFF0E2F26FF0E3022FF0E3122FF0EF7
:1003380032222F28F6E13028F4E13128F2E1322880
:10034800D8B41200EED7CA0EF66E000EF76E000E85
:10035800F86E01EE00F010EEFAF00900F5CFEEFFAE
:10036800E550E150FAE1AA0EF66E040EF76E000EA3
:10037800F86E00EE35F010EE04F00900F5CFEEFF50
:10038800E550E150FAE1396A3A903A92000117EFE4
:1003980002F02B4A2C2A35502B1809E136502C181C
:1003A800D8A405D0000E2B6E010E2C6E12002BC0A7
:1003B8002BF02CC02CF01200014A022A35500118EB
:1003C80009E136500218D8A405D0000E016E010EBE
:1003D800026E120001C001F002C002F012002D6E80
:1003E80037C0D9FF38C0DAFF2DC0DFFF37C02BF088
:1003F80038C02CF0CDEC01F02BC037F02CC038F011
:100408001200036E37C0D9FF38C0DAFF03C0DFFF20
:1004180037C001F038C002F0E0EC01F001C037F05D
:1004280002C038F01200D388D38AD38C000E956EA0
:10043800000E926E38EC02F04DEC02F071EC01F017
:10044800FDD735EC01F0FDD7FF0EF3EC01F0FF0E00
:10045800F3EC01F0C80EF3EC01F0800EF3EC01F0C0
:10046800400EF3EC01F01200948C948EB896AC8494
:10047800190EAF6EAC98AB8EAC8AAB889D989F88EE
:100488009D8A9F8A1200AECF39F0395005EC02F0F0
:100498001200D08EF28EF28C1200016E01C0ADFFF8
:0604A8001200FA01000140
:020000040020DA
:08000000FFFFFFFFFFFFFFFF00
:020000040030CA
:0E000000FF081F1EFF8181FF0FC00FE00F40A1
:00000001FF
