:0400000007EF00F016
:100008002D8235ED01F0D1EF01F07F7F3018307F80
:100018007F0000387C54545C180000417F7F40000A
:100028000000387C44446C280000387C44447C3808
:1000380000007C7C18301C7C7800387C54545C1898
:100048000000000000000000000000043E7F44445F
:100058002000387C44447C38000000000000000088
:10006800000040687AFFFF7A684000000000000046
:100078000000000000000000000000000000000078
:100088000000000000000000000000000000000068
:100098000000000000000000000000000000000058
:1000A8000000000000000000000000000000000048
:1000B8000000000000000000000000000000000038
:1000C8000000000000000000000000000000000028
:1000D8000000000000000000000000000000000018
:1000E8000000000000000000000000000000000008
:1000F80000000000000000000000000000000000F8
:1001080000000000000000000000000000000000E7
:1001180000000000000000000000000000000000D7
:1001280000000000000000000000000000000000C7
:1001380000000000000000000000000000000000B7
:1001480000000000000000000000000000000000A7
:100158000000000000000000000000000000000097
:100168000000000000000000000000000000000087
:100178000000000000000000000000000000000077
:100188000000000000000000000000000000000067
:100198000000000000000000000000000000000057
:1001A8000000000000000000000000000000000047
:1001B8000000000000000000000000000000000037
:1001C8000000000000000000000000000000000027
:1001D8000000000000000000000000000000000017
:1001E8000000000000000000000000000000000007
:1001F80000000000000000000000000000000000F7
:1002080000000000000000000000000000000000E6
:1002180000000000000000000000000000000000D6
:1002280000000000000000000000000000000000C6
:1002380000000000000000000000000000000000B6
:1002480000000000000000000000000000000000A6
:100258000000000000000000000000000000000096
:1002680000000600FACF04F0FBCF05F0E9CF06F056
:10027800EACF07F0E1CF08F0E2CF09F0D9CF0AF0D2
:10028800DACF0BF0F3CF0CF0F4CF0DF0F6CF0EF081
:10029800F7CF0FF0F8CF10F0F5CF11F02DC012F016
:1002A8002EC013F02FC014F030C015F09EAA05D050
:1002B80078EC02F02C5082EC02F015C030F014C03B
:1002C8002FF013C02EF012C02DF011C0F5FF10C092
:1002D800F8FF0FC0F7FF0EC0F6FF0DC0F4FF0CC00B
:1002E800F3FF0BC0DAFF0AC0D9FF09C0E2FF08C05C
:1002F800E1FF07C0EAFF06C0E9FF05C0FBFF04C035
:10030800FAFF2D92110018C020F019C021F0000E3C
:10031800236E000E226E23BE06D0235031E1DC0E80
:10032800225CD8B02DD020C0D9FF21C0DAFFDF5021
:10033800896E000E1B6E1E0E1A6E1A06D8A01B06BA
:100348001A28FBE11B28D8A4F8D7000E896E000EE6
:100358001D6E1E0E1C6E1C06D8A01D061C28FBE177
:100368001D28D8A4F8D720C016F021C017F02FEC0C
:1003780002F016C020F017C021F0224A232ACBD75A
:10038800000E1F6E000E1E6E1E06D8A01F061E2829
:10039800FBE11F28D8B41200F7D7120EF66E000E34
:1003A800F76E000EF86E03EEA8F012EE58F0090092
:1003B800F5CFEEFFE550E150FAE1E250F8E10C0E1E
:1003C800F66E050EF76E000EF86E00EE26F010EED3
:1003D80004F00900F5CFEEFFE550E150FAE12C6A90
:1003E8002B6A2A6A2D902D920001FBEF01F0D35061
:1003F8008F0B6009D36E000E956E000E926E67EC3F
:1004080002F07EEC02F0A80E246E030E256E24C0C6
:1004180016F025C017F01CEC02F016C024F017C027
:1004280025F024C018F025C019F087EC01F0EFD7AB
:100438002650161809E127501718D8A405D0A80E79
:10044800166E030E176E1200010E1624166E000E9D
:100458001720176E1200A80E161809E1030E1718B8
:10046800D8A405D026C016F027C017F01200FF0E3A
:100478001624166EFF0E1720176E1200265001184C
:1004880009E127500218D8A405D0A80E016E030E62
:10049800026E1200010E0124016E000E0220026E8F
:1004A8001200036E28C0D9FF29C0DAFF03C0DFFF9E
:1004B80028C001F029C002F042EC02F001C028F087
:1004C80002C029F01200948C948EB896AC84190E50
:1004D800AF6EAC98AB8E9E889E9AAC8AAB889D987E
:1004E8009F889D8A9F8A1200AECF2CF02C5055EC25
:1004F80002F01200D08EF28EF28C1200016E01C052
:08050800ADFF1200FF05220403
:020000040020DA
:08000000FFFFFFFFFFFFFFFF00
:020000040030CA
:0E000000FF881F00FF8381FF0FC00FE00F403D
:00000001FF
