:0400000007EF00F016
:100008003F8274ED0DF0D4EF0DF021EEDCF010EE30
:10001800A4F0070EDBCFE3FFE806FCE2000E0001C8
:100028008F6F780E8E6F000EB96F000EB86F030ECB
:10003800B76FE80EB66F000E936F000E926F000E4A
:10004800956F000E946F000E976F030E966F000E5B
:10005800A36F000EA26F000EAF6F000EAE6F010E01
:10006800AD6FE00EAC6F5CD2B7BF0AD0B75103E1F9
:10007800B605D8A005D0E20EB627FF0EB7230CD0E0
:10008800000E816F140E806F8007D8A08107802929
:10009800FBE18129D8A4F8D794059511D8A421D0DB
:1000A800000E956F000E946F0DD0000EA96F000E14
:1000B800A86F000EAB6F000EAA6FAAC0A6F0ABC067
:1000C800A7F00FD0B8C037F0B9C038F03850000AE0
:1000D800D8A407D03750030AD8B4EBD7070AD8B446
:1000E800E4D792519311D8A413D0B7BF05D0B75114
:1000F8000FE1B605D8B00CD0000E936F010E926FC9
:10010800000E956F010E946F000EB76F000EB66F5C
:10011800000EBB6F000EBA6FBBBF49D0BB5105E1E3
:10012800040EBA5DD8B07AD142D078D1000EB36F40
:100138001C0EB26FB207D8A0B307B229FBE1B329EE
:10014800D8B44DD0F7D7000EB36F0F0EB26FB20709
:10015800D8A0B307B229FBE1B329D8B440D0F7D768
:10016800000EB36F000EB26FB207D8A0B307B22962
:10017800FBE1B329D8B433D0F7D7000EB36F0A0E1A
:10018800B26FB207D8A0B307B229FBE1B329D8B43C
:1001980026D0F7D7000EB36F100EB26FB207D8A0F3
:1001A800B307B229FBE1B329D8B419D0F7D7B8C03F
:1001B80037F0B9C038F03850000AD8A410D03750FA
:1001C800000AD8B4B3D7010AD8B4BDD7030AD8B443
:1001D800C7D7010AD8B4D1D7070AD8B4DBD7AEC07D
:1001E80031F0AFC032F0000E346E120E336E67EC91
:1001F8000FF0560E31240001B46F030E3220B56F94
:10020800000E9D6F000E9C6F9DBF06D09D514BE167
:10021800090E9C5DD8B047D0D890BA35D96EBB3599
:10022800DA6EA40ED926000EDA22DE50DE10D8B41B
:1002380013D0B4C0D9FFB5C0DAFFDF50896EB4C09F
:10024800D9FFB5C0DAFFDECF37F0DDCF38F038C0E0
:1002580037F0386A375003D0000E896E000E8C6E66
:10026800000E836F3C0E826F8207D8A08307822915
:10027800FBE18329D8A4F8D7000E896E000E8C6E96
:10028800000E856F3C0E846F8407D8A085078429EB
:10029800FBE18529D8A4F8D79C4B9D2B020EB427E7
:1002A800000EB523B1D7E80E986F030E996F000EB4
:1002B8009A6F000E9B6FB805B911D8B405D0020E1D
:1002C800B819B911D8A43CD0B805B911D8A408D028
:1002D800BBBF14D0BB5104E1020EBA5DD8A00ED04A
:1002E800020EB819B911D8A41AD0BA51BB11D8B492
:1002F80005D0020EBA19BB11D8A411D0B6C037F078
:10030800B7C038F0000E38BEFF0E396E3A6E37505F
:10031800985F3850995B39509A5B3A5066D0B6C0AE
:1003280037F0B7C038F0000E38BEFF0E396E3A6E9F
:10033800375098273850992339509A233A5039D052
:10034800B851B911D8B452D0040EB819B911D8A4FB
:1003580008D0BBBF14D0BB5104E1020EBA5DD8A0CF
:100368000ED0030EB819B911D8A425D0BA51BB11B3
:10037800D8B405D0020EBA19BB11D8A41CD0B6C087
:1003880037F0B7C038F0371E381E374A382AE80E1B
:100398003724396E030E38203A6E3B6A3ABE3B0664
:1003A8003B503C6E395098273A5099233B509A233A
:1003B8003C509B231BD0B6C037F0B7C038F0371E6F
:1003C800381E374A382AE80E3724396E030E38208B
:1003D8003A6E3B6A3ABE3B063B503C6E3950985FDA
:1003E8003A50995B3B509A5B3C509B5BFF0E9827B9
:1003F800FF0E9923FF0E9A23FF0E9B239829F6E1FF
:100408009929F4E19A29F2E19B29D8A4EFD7BA4BAC
:10041800BB2BBBBFCCD6BB5101E182D6A24BA32BD1
:100428009651A21913E19751A319D8A40FD0000E21
:10043800A36F000EA26FAE4BAF2B060EAE19AF1115
:10044800D8A404D0000EAF6F000EAE6F8E07D8A0F0
:100458008F078E2965E18F29D8A462D0000E8F6F8F
:10046800780E8E6F030EB76FE80EB66F000E936F9F
:10047800000E926FB84BB92BB8C031F0B9C032F04A
:10048800000E346E050E336EC0EC0EF031C0B8F0BD
:1004980032C0B9F0000E0001BB6F000EBA6FBBBFCF
:1004A80006D0BB5125E1040EBA5DD8B021D0D89052
:1004B800BA35D96EBB35DA6EA40ED926000EDA220B
:1004C800000EDE6E000EDD6EBA4BBB2BE8D7000EB9
:1004D800AB6F010EAA6FAAC0A6F0ABC0A7F0000EC2
:1004E800A96F010EA86F000EA56F010EA46F18D09A
:1004F800B8C037F0B9C038F03850000AD8A410D0C6
:100508003750000AD8B4EFD7010AD8B4E8D7030A9D
:10051800D8B4DDD7010AD8B4DAD7070AD8B4DFD7F8
:10052800AC07D8A0AD07AC2902E1AD29D8A49CD569
:10053800000EAD6F780EAC6F000EB76F000EB66F81
:1005480007D1460EB627000EB723B7BF0BD0110E42
:10055800B65D130EB759D8A005D0130EB76F100E9D
:10056800B66F0CD0000EB16F050EB06FB007D8A0F3
:10057800B107B029FBE1B129D8A4F8D7B6C0B0F0CB
:10058800B7C0B1F0B007D8A0B107B029FBE1B129D5
:10059800D8A4F8D7AEC031F0AFC032F0000E346E38
:1005A800120E336E67EC0FF0560E31240001B46F53
:1005B800030E3220B56F000E9F6F000E9E6F9FBF17
:1005C80006D09F513AE1090E9E5DD8B036D0B4C02E
:1005D800D9FFB5C0DAFFDF50896EB4C0D9FFB5C006
:1005E800DAFFDECF37F0DDCF38F038C037F0386AC1
:1005F80037508C6E000E876F3C0E866F8607D8A02A
:1006080087078629FBE18729D8A4F8D7000E896EC9
:10061800000E8C6E000E896F3C0E886F8807D8A07C
:1006280089078829FBE18929D8A4F8D79E4B9F2BF5
:10063800020EB427000EB523C2D7130E916F100E09
:10064800906FB651905FB751915B9007D8A0910712
:100658009029FBE19129D8A4F8D7000EA16F000ECC
:10066800A06FA1BF06D0A1513AE1090EA05DD8B094
:1006780036D0020EB45F000EB55BB4C0D9FFB5C06A
:10068800DAFFDF50896EB4C0D9FFB5C0DAFFDECF1C
:1006980037F0DDCF38F038C037F0386A37508C6E15
:1006A800000E8B6F3C0E8A6F8A07D8A08B078A29A9
:1006B800FBE18B29D8A4F8D7000E896E000E8C6E4A
:1006C800000E8D6F3C0E8C6F8C07D8A08D078C297F
:1006D800FBE18D29D8A4F8D7A04BA12BC2D7ADBF79
:1006E8001FD0AD5104E1290EAC5DD8A019D0A24BA2
:1006F800A32B9651A21920E19751A319D8A41CD075
:10070800000EA36F000EA26FAE4BAF2B060EAE19F4
:10071800AF11D8A411D0000EAF6F000EAE6F0CD081
:10072800000EB16F0F0EB06FB007D8A0B107B02997
:10073800FBE1B129D8A4F8D7130EB16F560EB06FEC
:10074800B007D8A0B107B029FBE1B129D8A4F8D7E0
:10075800AC07D8A0AD07AC2903E1AD29D8B4120085
:10076800F0D621EED2F010EEA0F0090EDBCFE3FFB9
:10077800E806FCE222EEACF010EE80F01F0EDBCFB4
:10078800E3FFE806FCE220EEF8F010EEAAF0040E13
:10079800DBCFE3FFE806FCE220EE1AF010EEAFF044
:1007A800040EDBCFE3FFE806FCE220EE15F010EEC6
:1007B800B4F0040EDBCFE3FFE806FCE220EE10F015
:1007C80010EEB9F0040EDBCFE3FFE806FCE220EE02
:1007D8000BF010EEBEF0040EDBCFE3FFE806FCE200
:1007E80020EE06F010EEC3F0040EDBCFE3FFE806C0
:1007F800FCE220EE01F010EEC8F0040EDBCFE3FFC0
:10080800E806FCE221EEE9F010EECDF0040EDBCFB5
:10081800E3FFE806FCE221EEE4F010EED2F0040E6D
:10082800DBCFE3FFE806FCE2000E0001E06F030EF9
:10083800DF6F000EDE6F780EDD6FFF0EE46FF10ED6
:10084800E36F020ED86F9A0ED76F87D2000EE66F4D
:10085800000EE56FE6BF08D0E65105E1630EE55DE1
:10086800D8B04BD201D049D2000EE26F000EE16F32
:100878002DD0040EE127000EE223040EE127000E1E
:10088800E223040EE127000EE223040EE127000E06
:10089800E223040EE127000EE223040EE127000EF6
:1008A800E223040EE127000EE223040EE127000EE6
:1008B800E223040EE127000EE223E107D8A0E207B5
:1008C800E129FBE1E229D8B425D0F7D7E5C031F01A
:1008D800E6C032F03250000AD8A41CD031500A0ABF
:1008E800D8B4C7D71A0AD8B4C8D7060AD8B4C9D74B
:1008F8000A0AD8B4CAD73E0AD8B4CBD70A0AD8B499
:10090800CCD7060AD8B4CDD71A0AD8B4CED70E0A8F
:10091800D8B4CFD7E6BF06D0E65120E1140EE55D86
:10092800D8B01CD0E6BF1AD0E65104E10F0EE55D41
:10093800D8A014D0F10E316EFF0E326EE5C033F040
:10094800E6C034F03150332632503422AA0E332414
:10095800D96E000E3420DA6EDF508912E6BF06D059
:10096800E65120E11A0EE55DD8B01CD0E6BF1AD0DA
:10097800E65104E1150EE55DD8A014D0EB0E316EFA
:10098800FF0E326EE5C033F0E6C034F03150332646
:1009980032503422AF0E3324D96E000E3420DA6E72
:1009A800DF508912E6BF06D0E65120E1200EE55D52
:1009B800D8B01CD0E6BF1AD0E65104E11B0EE55DA5
:1009C800D8A014D0E50E316EFF0E326EE5C033F0BC
:1009D800E6C034F03150332632503422B40E33247A
:1009E800D96E000E3420DA6EDF508912E6BF22D0AD
:1009F800E65104E1210EE55DD8A01CD0E6BF06D083
:100A0800E65118E1260EE55DD8B014D0DF0E316E40
:100A1800FF0E326EE5C033F0E6C034F031503326B5
:100A280032503422B90E3324D96E000E3420DA6ED7
:100A3800DF508912E6BF06D0E65120E12C0EE55DB5
:100A4800D8B01CD0E6BF1AD0E65104E1270EE55D08
:100A5800D8A014D0D90E316EFF0E326EE5C033F037
:100A6800E6C034F03150332632503422BE0E3324DF
:100A7800D96E000E3420DA6EDF508912E6BF22D01C
:100A8800E65104E12D0EE55DD8A01CD0E6BF06D0E6
:100A9800E65118E1320EE55DD8B014D0D30E316EB0
:100AA800FF0E326EE5C033F0E6C034F03150332625
:100AB80032503422C30E3324D96E000E3420DA6E3D
:100AC800DF508912E6BF22D0E65104E1330EE55D1E
:100AD800D8A01CD0E6BF06D0E65118E1380EE55D77
:100AE800D8B014D0CD0E316EFF0E326EE5C033F0A3
:100AF800E6C034F03150332632503422C80E332445
:100B0800D96E000E3420DA6EDF508912E6BF22D08B
:100B1800E65104E1390EE55DD8A01CD0E6BF06D049
:100B2800E65118E13E0EE55DD8B014D0C70E316E1F
:100B3800FF0E326EE5C033F0E6C034F03150332694
:100B480032503422CD0E3324D96E000E3420DA6EA2
:100B5800DF508912E6BF22D0E65104E13F0EE55D81
:100B6800D8A01CD0E6BF06D0E65118E1440EE55DDA
:100B7800D8B014D0C10E316EFF0E326EE5C033F01E
:100B8800E6C034F03150332632503422D20E3324AA
:100B9800D96E000E3420DA6EDF508912E6BF22D0FB
:100BA800E65104E1570EE55DD8A01CD0E6BF06D09B
:100BB800E65118E1610EE55DD8B014D0A90E316E8A
:100BC800FF0E326EE5C033F0E6C034F03150332604
:100BD80032503422A00E3324D96E000E3420DA6E3F
:100BE800DF508912E351E55DE651800A316EE45128
:100BF800800A3158D8A027D0100EE325316E000E98
:100C0800E421326E3150E55DE651800A336E325090
:100C1800800A3358D8B017D0E3C031F0E4C032F0BE
:100C2800311E321E314A322AE5513126E65132222E
:100C3800D89031363236800E3124D96E000E3220EB
:100C4800DA6EDF508912630EE325316E000EE4215F
:100C5800326E3150E55DE651800A336E3250800ABB
:100C68003358D8A029D0730EE325316E000EE42145
:100C7800326E3150E55DE651800A336E3250800A9B
:100C88003358D8B019D0630EE325316E000EE42135
:100C9800326E311E321E314A322AE5513126E65172
:100CA8003222D89031363236800E3124D96E000E79
:100CB8003220DA6EDF508912000EDA6F280ED96FF3
:100CC800D907D8A0DA07D929FBE1DA29D8A4F8D7B7
:100CD800000E896E000EDC6F280EDB6FDB07D8A0D4
:100CE800DC07DB29FBE1DC29D8A4F8D7E54BE62BA8
:100CF800E6BFBAD5E65101E1B1D5300EE319E411EA
:100D0800D8A404D0000EE06F010EDF6F530EE31974
:100D1800E411D8A40AD0DD07D8A0DE07DD51DE1122
:100D2800D8B403D0E307D8A0E407DF51E327E051A4
:100D3800E423E4BF12D0E45104E1550EE35DD8A0EA
:100D48000CD0000EDE6F780EDD6FFF0EE46FF10E33
:100D5800E36F000EE06F030EDF6FD707D8A0D80748
:100D6800D72903E1D829D8B4120070D522EE82F031
:100D780010EE80F0290EDBCFE3FFE806FCE221EE5F
:100D8800C6F010EEE2F00B0EDBCFE3FFE806FCE264
:100D9800000E0001AB6F040EAA6F000EAD6F000EBF
:100DA800AC6F82D1000EEF6F080EEE6F88D0E20EA6
:100DB800C46F000EC56F000EC96F000EC86FC9BFA3
:100DC80006D0C9517CE1060EC85DD8B078D0800E37
:100DD800CA6F000ECB6F000ECD6F000ECC6FCDBF6B
:100DE80006D0CD5155E1150ECC5DD8B051D0C4C058
:100DF800D9FFC5C0DAFFDE50DE10D8B416D0CAC09D
:100E0800D9FFCBC0DAFFDF50896ECAC0D9FFCBC08B
:100E1800DAFFDECF31F0DDCF32F032C031F0326AA6
:100E280031BE326831508C6E10D0000E896E000EC3
:100E38008C6E000EF76F010EF66FF607D8A0F70755
:100E4800F629FBE1F729D8A4F8D7000EAF6F1E0EDC
:100E5800AE6FAE07D8A0AF07AE29FBE1AF29D8A483
:100E6800F8D7000E8C6E8CCF89FF000EB16F1E0E66
:100E7800B06FB007D8A0B107B029FBE1B129D8A459
:100E8800F8D7CC4BCD2B020ECA27000ECB23A7D701
:100E9800010EF76FFE0EF66FF607D8A0F707F629D2
:100EA800FBE1F729D8A4F8D7C84BC92B020EC427F1
:100EB800000EC523C9BF8BD7C95101E184D7EE07FE
:100EC800D8A0EF07EE2902E1EF29D8A470D7000EC9
:100ED800EF6F0F0EEE6F000ECF6F000ECE6F9DD02E
:100EE800E20EC66F000EC76F000EF16F000EF06FB6
:100EF800F1BF08D0F15105E1060EF05DD8B08DD0F4
:100F080001D08BD0800ED06F000ED16F000ED36F42
:100F1800000ED26FD3BF06D0D35155E1150ED25D66
:100F2800D8B051D0C6C0D9FFC7C0DAFFDE50DE1036
:100F3800D8B416D0D0C0D9FFD1C0DAFFDF50896E3F
:100F4800D0C0D9FFD1C0DAFFDECF31F0DDCF32F02B
:100F580032C031F0326A31BE326831508C6E10D0F6
:100F6800000E896E000E8C6E000EB36F010EB26F0C
:100F7800B207D8A0B307B229FBE1B329D8A4F8D7A0
:100F8800000EB56F1E0EB46FB407D8A0B507B4290C
:100F9800FBE1B529D8A4F8D7000E8C6E8CCF89FF59
:100FA800000EB76F1E0EB66FB607D8A0B707B629E2
:100FB800FBE1B729D8A4F8D7D24BD32B020ED02700
:100FC800000ED123A7D7010EF76FFE0EF66FF05172
:100FD800F111D8A40FD0EEA105D0CE51F627CF51EC
:100FE800F72304D0CE51F65FCF51F75B210ECE2701
:100FF800000ECF23F607D8A0F707F629FBE1F7295B
:10100800D8A4F8D7F04BF12B020EC627000EC72341
:10101800F1BF78D7F15101E16FD7EE07D8A0EF07FC
:10102800EE2903E1EF29D8B42BD05AD7000EE36F8D
:10103800000EE26F000EED6F010E0FD0000EEB6F89
:10104800010EEA6FEAC0E6F0EBC0E7F0E6C0E2F0B6
:10105800E7C0E3F0000EED6F000EEC6FECC0E4F0BB
:10106800EDC0E5F021D0000EED6F010EEC6FECC085
:10107800E8F0EDC0E9F0E8C0E4F0E9C0E5F014D02C
:10108800AC4BAD2BACC031F0ADC032F03250000AE1
:10109800D8A40AD03150010AD8B4C8D7030AD8B4A2
:1010A800CDD7010AD8B4DFD7AA07D8A0AB07AA2999
:1010B80002E1AB29D8A476D6000EF56F0F0EF46FB7
:1010C80054D0800ED46F000ED56F000ED76F000E6F
:1010D800D66FD7BF06D0D7513CE1150ED65DD8B034
:1010E80038D0D4C0D9FFD5C0DAFFDF50896ED4C05C
:1010F800D9FFD5C0DAFFDECF31F0DDCF32F032C014
:1011080031F0326A31BE326831508C6E000EB96FE0
:101118001E0EB86FB807D8A0B907B829FBE1B929DE
:10112800D8A4F8D7000E8C6E8CCF89FF000EBB6F49
:101138001E0EBA6FBA07D8A0BB07BA29FBE1BB29B4
:10114800D8A4F8D7D64BD72B020ED427000ED52318
:10115800C0D73C0EF76F8C0EF66FF607D8A0F707CE
:10116800F629FBE1F729D8A4F8D7F407D8A0F507A2
:10117800F429A7E1F529D8A4A4D7000EF56F140E19
:10118800F46F54D0800ED86F000ED96F000EDB6F4D
:10119800000EDA6FDBBF06D0DB513CE1150EDA5DDD
:1011A800D8B038D0D8C0D9FFD9C0DAFFDF50896E9F
:1011B800D8C0D9FFD9C0DAFFDECF31F0DDCF32F0A9
:1011C80032C031F0326A31BE326831508C6E000E56
:1011D800BD6F1E0EBC6FBC07D8A0BD07BC29FBE1C4
:1011E800BD29D8A4F8D7000E8C6E8CCF89FF000ECD
:1011F800BF6F1E0EBE6FBE07D8A0BF07BE29FBE19A
:10120800BF29D8A4F8D7DA4BDB2B020ED827000E5B
:10121800D923C0D7270EF76F100EF66FF607D8A0A0
:10122800F707F629FBE1F729D8A4F8D7F407D8A0DF
:10123800F507F429A7E1F529D8A4A4D7000EF56F7E
:10124800280EF46F000EF36F000EF26F71D0F3BF2B
:1012580006D0F35106E1140EF25DD8B002D0F24B7D
:10126800F32B000EDD6F000EDC6FDDBF06D0DD5105
:101278005FE10B0EDC5DD8B05BD0800EDE6F000E38
:10128800DF6F000EE16F000EE06FE1BF06D0E151A5
:101298003CE1150EE05DD8B038D0DEC0D9FFDFC024
:1012A800DAFFDF50896EDEC0D9FFDFC0DAFFDECF9C
:1012B80031F0DDCF32F032C031F0326A31BE3268FF
:1012C80031508C6EF2C0C0F0F3C0C1F0C007D8A096
:1012D800C107C029FBE1C129D8A4F8D7000E8C6E3C
:1012E8008CCF89FFF2C0C2F0F3C0C3F0C207D8A008
:1012F800C307C229FBE1C329D8A4F8D7E04BE12BE7
:10130800020EDE27000EDF23C0D7000EF76F230E74
:10131800F66FF607D8A0F707F629FBE1F729D8A456
:10132800F8D7DC4BDD2BDDBFA8D7DD5101E1A1D714
:10133800F407D8A0F507F4298AE1F529D8B41200F2
:1013480086D7000E01019D6F000E9C6F22EECCF037
:1013580011EE6AF01B0EDBCFE3FFE806FCE222EE9B
:1013680000F011EE00F04F0EDBCFE3FFE806FCE2E1
:1013780021EEACF011EE50F0190EDBCFE3FFE806DA
:10138800FCE2010E876FF40E866FDFD1F2C131F0F7
:10139800F3C132F0000E346E0A0E336E7EEC0EF09E
:1013A80031C039F032C03AF032EC0EF0F2C131F00F
:1013B800F3C132F0000E346E0A0E336EC0EC0EF03C
:1013C80031C039F032C03AF032EC0EF0000E0101B3
:1013D800AB6F500EAA6FAA07D8A0AB07AA29FBE1EA
:1013E800AB29D8A4F8D79C4B9D2B9CA702D00A0EFA
:1013F80001D0000E896EEEC131F0EFC132F0000E5F
:10140800346E0A0E336E7EEC0EF031C088F132C0B5
:1014180089F1000E896EEEC131F0EFC132F0000E95
:10142800346E0A0E336EC0EC0EF031C08AF132C051
:101438008BF1000E0101AB6F500EAA6FAA07D8A05E
:10144800AB07AA29FBE1AB29D8A4F8D788C139F0A2
:1014580089C13AF032EC0EF08AC139F08BC13AF00A
:1014680032EC0EF0000E0101AB6F500EAA6FAA0706
:10147800D8A0AB07AA29FBE1AB29D8A4F8D79CA729
:1014880002D00A0E01D0000E896EF0C131F0F1C110
:1014980032F0000E346E0A0E336E7EEC0EF031C060
:1014A8008CF132C08DF1000E896EF0C131F0F1C1BE
:1014B80032F0000E346E0A0E336EC0EC0EF031C0FE
:1014C8008EF132C08FF1000E0101AB6F500EAA6F82
:1014D800AA07D8A0AB07AA29FBE1AB29D8A4F8D75B
:1014E8008CC139F08DC13AF032EC0EF08EC139F072
:1014F8008FC13AF032EC0EF0030E0101AB6F610EB2
:10150800AA6FAA07D8A0AB07AA29FBE1AB29D8A4E0
:10151800F8D76A0EA86F010EA96F000E9F6F000E14
:101528009E6F9FBF06D09F513CE10E0E9E5DD8B0C6
:1015380038D0A8C1D9FFA9C1DAFFDF50896EA8C188
:10154800D9FFA9C1DAFFDECF3BF0DDCF3CF03CC0CC
:101558003BF03C6A3BBE3C683B508C6E000E916F82
:10156800280E906F9007D8A091079029FBE1912948
:10157800D8A4F8D7000E896E000E8C6E000E936FFB
:10158800280E926F9207D8A093079229FBE193291E
:10159800D8A4F8D79E4B9F2B020EA827000EA9238C
:1015A800C0D7000EA76F000EA66FA7BF06D0A75121
:1015B8006CE1040EA65DD8B068D0A6C131F0A7C111
:1015C80032F0000E346E140E336E67EC0FF0000E1E
:1015D80031240101A86F010E3220A96F000EA16FFE
:1015E800000EA06FA1BF06D0A1513CE10A0EA05D7C
:1015F800D8B038D0A8C1D9FFA9C1DAFFDF50896EA9
:10160800A8C1D9FFA9C1DAFFDECF3BF0DDCF3CF09E
:101618003CC03BF03C6A3BBE3C683B508C6E000EC5
:10162800956F280E946F9407D8A095079429FBE12D
:101638009529D8A4F8D7000E896E000E8C6E000E7E
:10164800976F280E966F9607D8A097079629FBE103
:101658009729D8A4F8D7A04BA12B020EA827000ED3
:10166800A923C0D7000EAB6F640EAA6FAA07D8A033
:10167800AB07AA29FBE1AB29D8A4F8D7A64BA72B1F
:10168800A7BF9BD7A75101E194D7010EAB6F2C0ED2
:10169800AA6FAA07D8A0AB07AA29FBE1AB29D8A44F
:1016A800F8D7500EA26F010EA36F000EA56F000EA3
:1016B800A46FA5BF06D0A5513CE10D0EA45DD8B01E
:1016C80038D0A2C1D9FFA3C1DAFFDF50896EA2C109
:1016D800D9FFA3C1DAFFDECF3BF0DDCF3CF03CC041
:1016E8003BF03C6A3BBE3C683B508C6E000E996FE9
:1016F800280E986F9807D8A099079829FBE199298F
:10170800D8A4F8D7000E896E000E8C6E000E9B6F61
:10171800280E9A6F9A07D8A09B079A29FBE19B2964
:10172800D8A4F8D7A44BA52B020EA227000EA323FA
:10173800C0D7030EAB6F610EAA6FAA07D8A0AB077C
:10174800AA29FBE1AB29D8A4F8D78607D8A0870730
:1017580086518711D8B4120019D623EE00F010EE86
:1017680080F0550EDBCFE3FFE806FCE2000E000137
:10177800D96F000ED86F000EDB6F000EDA6F010E06
:10178800D76FF40ED66FCED0DAC031F0DBC032F0AE
:10179800000E346E120E336E67EC0FF0100E312609
:1017A800000E3222560E31240001E06F030E322063
:1017B800E16F000EDF6F000EDE6FDFBF06D0DF5176
:1017C80046E1090EDE5DD8B042D0E0C0D9FFE1C0E5
:1017D800DAFFDF50896EE0C0D9FFE1C0DAFFDECF63
:1017E80037F0DDCF38F038C037F0386A37BE3868A0
:1017F800375002098C6E0C0EDE15376E000EDF15A1
:10180800386E37503810D8A48988000EE36F3C0E24
:10181800E26FE207D8A0E307E229FBE1E329D8A4B5
:10182800F8D7000E896E8C90000EE36F3C0EE26FC5
:10183800E207D8A0E307E229FBE1E329D8A4F8D717
:10184800DE4BDF2B020EE05F000EE15BB6D7030E26
:10185800D84BD92BD815376E000ED915386E37509E
:101868003810D8A40BD0DA4BDB2B060EDA19DB11B3
:10187800D8A404D0000EDB6F000EDA6F800EE06F84
:10188800000EE16F000EDD6F000EDC6FDDBF06D0CD
:10189800DD513CE12B0EDC5DD8B038D0E0C0D9FF7B
:1018A800E1C0DAFFDF50896EE0C0D9FFE1C0DAFF9E
:1018B800DECF37F0DDCF38F038C037F0386A37BEC2
:1018C8003868375002098C6E000EE36F3C0EE26FE9
:1018D800E207D8A0E307E229FBE1E329D8A4F8D777
:1018E800000E896E8C90000EE36F3C0EE26FE207EB
:1018F800D8A0E307E229FBE1E329D8A4F8D7DC4B19
:10190800DD2B020EE027000EE123C0D7150EE36F92
:10191800180EE26FE207D8A0E307E229FBE1E3290A
:10192800D8A4F8D7D607D8A0D707D62903E1D7294E
:10193800D8B4120029D700000000000003000B00F3
:10194800070000000000000000000303FF030E0072
:1019580018003000300018000E00FF0303030003D6
:10196800F0037C022E00230023002E007C02F003EB
:1019780000038C039E013303230321021102130386
:101988003703E601C7001F1111111F00001F0000D7
:101998001C15151517101115151F0704041F04171A
:1019A8001515151D1F1414141C000101011F1F1506
:1019B80015151F070505051F00010000000080011F
:1019C80020006000100124000E0125030E012400F0
:1019D80010016000200080010000000000010000EC
:1019E8000000320036001C0008000800080008004B
:1019F8000800080008000800080008002A001C0069
:101A080008000002000203030101CF01DC0070009E
:101A18003800EC00CF0101030302000200021800A5
:101A28003C003C007800D00090011000100010002D
:101A3800100024004C00FC0080008001FC00950090
:101A4800FE009600FD018000FC009500FE00950058
:101A5800FC008000FC009500FE009500FC00800062
:101A6800FD019600FE009501FC008000FC000C00C2
:101A780004000000000000022001D0007F00A7023F
:101A880010010000000000008000300190007F007D
:101A98009702200120000000800008018800500003
:101AA800BF00170320004000000000004001200193
:101AB80090007F0357002000000000000000000293
:101AC8000001B0027F0137000000000000000002A2
:101AD8000001800050007F00D701200110000000A5
:101AE8000600FACF1FF0FBCF20F0E9CF21F0EACFB4
:101AF80022F0E1CF23F0E2CF24F0D9CF25F0DACFDE
:101B080026F0F3CF27F0F4CF28F0F6CF29F0F7CF5F
:101B18002AF0F8CF2BF0F5CF2CF03FC02DF040C0C5
:101B28002EF041C02FF042C030F09DB09EA012D0E0
:101B38003C0ECF6EAF0ECE6E9E903D4A3E2A050EED
:101B48003D183E10D8A406D0000E3E6E000E3D6E25
:101B580023EC0FF030C042F02FC041F02EC040F00F
:101B68002DC03FF02CC0F5FF2BC0F8FF2AC0F7FFAF
:101B780029C0F6FF28C0F4FF27C0F3FF26C0DAFF0C
:101B880025C0D9FF24C0E2FF23C0E1FF22C0EAFF3D
:101B980021C0E9FF20C0FBFF1FC0FAFF3F921100E0
:101BA800260EF66E1A0EF76E000EF86E03EE00F0B3
:101BB80010EEC2F00900F5CFEEFFE550E150FAE172
:101BC8003E0EF66E190EF76E000EF86E02EE00F07D
:101BD80010EEE8F00900F5CFEEFFE550E150FAE12C
:101BE8008C0EF66E1E0EF76E000EF86E01EEACF05F
:101BF80010EE42F00900F5CFEEFFE550E150FAE1B2
:101C0800120EF66E1F0EF76E000EF86E00EEF8F06C
:101C180010EE05F00900F5CFEEFFE550E150FAE1CE
:101C2800F40EF66E1E0EF76E000EF86E00EE01F062
:101C380010EE1EF00900F5CFEEFFE550E150FAE195
:101C48000101F16BF06BEF6BEE6B3E6A3D6A3F9002
:101C58003F92000EF86E0001F8EF0EF022EE50F001
:101C680010EE80F0310EDBCFE3FFE806FCE239C06E
:101C780031F03AC032F0000E346E050E336E67EC68
:101C88000FF0800E31240001B66F000E3220B76FBE
:101C9800000EB96F000EB86FB9BF06D0B95129E16F
:101CA800050EB85DD8B01200B6C0D9FFB7C0DAFFCC
:101CB800DF50896E000EB36F280EB26FB207D8A03E
:101CC800B307B229FBE1B329D8A4F8D7000E896E6F
:101CD800000EB56F280EB46FB407D8A0B507B429A5
:101CE800FBE1B529D8A4F8D7B84BB92BB64BB72B1D
:101CF800D3D71200000E366E34AE06D0336C341EC5
:101D0800D8B0342A010E366E32AE06D0316C321E8F
:101D1800D8B0322A010E361A000E386E000E376E11
:101D280033503410D8B41CD0010E356E04D0D8907E
:101D380033363436352A34AEFAD7D8903736383673
:101D48003350315C34503258D8A005D03350315E0E
:101D58003450325A3780D89034323332352EEDD75A
:101D68003650D8B404D0376C381ED8B0382A37C0AB
:101D780031F038C032F01200000E366E32AE06D0A6
:101D8800316C321ED8B0322A010E366E34AE04D011
:101D9800336C341ED8B0342A33503410D8B418D029
:101DA800010E356E04D0D89033363436352A34AE29
:101DB800FAD73350315C34503258D8A004D033505D
:101DC800315E3450325AD89034323332352EF1D70E
:101DD8003650D8B404D0316C321ED8B0322A31C053
:101DE80031F032C032F01200D388D38AD38CD08E2F
:101DF800B50ECD6E3C0ECF6EB00ECE6E9D809F8020
:101E08009E90F28E000E0101F36F150EF26F000E18
:101E1800EF6F000EEE6F000E926E000E956E000EC4
:101E28008C6E000E896EA5EC09F009EC00F0B5EC9B
:101E380003F0BAEC06F0B1EC0BF0F5D7FFD70101CF
:101E4800F04BF12B3C0EF019F111D8A41200000E42
:101E5800F16F000EF06FEE4BEF2B3C0EEE19EF1109
:101E6800D8A41200000EEF6F000EEE6FF24BF32BAA
:101E7800180EF219F311D8A41200000EF36F000E19
:101E8800F26F1200FE00070137023602370286029F
:101E9800860287023602370237020701FE00010078
:101EA80000000000000000000000000C1E3E7C3E08
:101EB8001E0C000001000000000000001F15151591
:101EC80015070C100C0731503302F3CF35F0F4CF5F
:101ED80036F031503402F350362632503302F35084
:101EE800362635C031F036C032F012000E1111110D
:101EF8000E1F1010101012151515091F0204081FC7
:0F1F08001C0A090A1C1F05050D1203011F010306
:020000040020DA
:08000000FFFFFFFFFFFFFFFF00
:020000040030CA
:0E000000FF081F1EFF8185FF0FC00FE00F409D
:00000001FF
