:0400000007EF00F016
:10000800448286ED07F0E6EF07F020EE01F010EEEF
:10001800A0F0090EDBCFE3FFE806FCE221EEC2F018
:1000280010EE80F01F0EDBCFE3FFE806FCE220EEC7
:10003800FBF010EEAAF0040EDBCFE3FFE806FCE2CB
:1000480020EEF6F010EEAFF0040EDBCFE3FFE8068B
:10005800FCE220EEF1F010EEB4F0040EDBCFE3FF8B
:10006800E806FCE220EEECF010EEB9F0040EDBCF6F
:10007800E3FFE806FCE220EEE7F010EEBEF0040E27
:10008800DBCFE3FFE806FCE220EE1AF010EEC3F047
:10009800040EDBCFE3FFE806FCE220EE15F010EEDD
:1000A800C8F0040EDBCFE3FFE806FCE220EE10F018
:1000B80010EECDF0040EDBCFE3FFE806FCE220EE05
:1000C8000BF010EED2F0040EDBCFE3FFE806FCE203
:1000D800000E0001E06F030EDF6F000EDE6F780E7A
:1000E800DD6FFF0EE46FF10EE36F020ED86FE40EC2
:1000F800D76F87D2000EE66F000EE56FE6BF08D017
:10010800E65105E1630EE55DD8B04BD201D049D286
:10011800000EE26F000EE16F2DD0040EE127000EF5
:10012800E223040EE127000EE223040EE127000E6D
:10013800E223040EE127000EE223040EE127000E5D
:10014800E223040EE127000EE223040EE127000E4D
:10015800E223040EE127000EE223040EE127000E3D
:10016800E223E107D8A0E207E129FBE1E229D8B4BC
:1001780025D0F7D7E5C034F0E6C035F03550000A91
:10018800D8A41CD034500A0AD8B4C7D71A0AD8B48D
:10019800C8D7060AD8B4C9D70A0AD8B4CAD73E0AF3
:1001A800D8B4CBD70A0AD8B4CCD7060AD8B4CDD796
:1001B8001A0AD8B4CED70E0AD8B4CFD7E6BF06D01D
:1001C800E65120E1140EE55DD8B01CD0E6BF1AD088
:1001D800E65104E10F0EE55DD8A014D0F10E346E9F
:1001E800FF0E356EE5C036F0E6C037F034503626DF
:1001F80035503722AA0E3624D96E000E3720DA6E13
:10020800DF508912E6BF06D0E65120E11A0EE55DFF
:10021800D8B01CD0E6BF1AD0E65104E1150EE55D52
:10022800D8A014D0EB0E346EFF0E356EE5C036F054
:10023800E6C037F03450362635503722AF0E362414
:10024800D96E000E3720DA6EDF508912E6BF06D06D
:10025800E65120E1200EE55DD8B01CD0E6BF1AD0EB
:10026800E65104E11B0EE55DD8A014D0E50E346E0E
:10027800FF0E356EE5C036F0E6C037F0345036264E
:1002880035503722B40E3624D96E000E3720DA6E78
:10029800DF508912E6BF22D0E65104E1210EE55D68
:1002A800D8A01CD0E6BF06D0E65118E1260EE55DC1
:1002B800D8B014D0DF0E346EFF0E356EE5C036F0C0
:1002C800E6C037F03450362635503722B90E36247A
:1002D800D96E000E3720DA6EDF508912E6BF06D0DD
:1002E800E65120E12C0EE55DD8B01CD0E6BF1AD04F
:1002F800E65104E1270EE55DD8A014D0D90E346E7E
:10030800FF0E356EE5C036F0E6C037F034503626BD
:1003180035503722BE0E3624D96E000E3720DA6EDD
:10032800DF508912E6BF22D0E65104E12D0EE55DCB
:10033800D8A01CD0E6BF06D0E65118E1320EE55D24
:10034800D8B014D0D30E346EFF0E356EE5C036F03B
:10035800E6C037F03450362635503722C30E3624DF
:10036800D96E000E3720DA6EDF508912E6BF22D030
:10037800E65104E1330EE55DD8A01CD0E6BF06D0F7
:10038800E65118E1380EE55DD8B014D0CD0E346EC4
:10039800FF0E356EE5C036F0E6C037F0345036262D
:1003A80035503722C80E3624D96E000E3720DA6E43
:1003B800DF508912E6BF22D0E65104E1390EE55D2F
:1003C800D8A01CD0E6BF06D0E65118E13E0EE55D88
:1003D800D8B014D0C70E346EFF0E356EE5C036F0B7
:1003E800E6C037F03450362635503722CD0E362445
:1003F800D96E000E3720DA6EDF508912E6BF22D0A0
:10040800E65104E13F0EE55DD8A01CD0E6BF06D05A
:10041800E65118E1440EE55DD8B014D0C10E346E33
:10042800FF0E356EE5C036F0E6C037F0345036269C
:1004380035503722D20E3624D96E000E3720DA6EA8
:10044800DF508912E6BF22D0E65104E1570EE55D80
:10045800D8A01CD0E6BF06D0E65118E1610EE55DD4
:10046800D8B014D0A90E346EFF0E356EE5C036F044
:10047800E6C037F03450362635503722A00E3624E1
:10048800D96E000E3720DA6EDF508912E351E55D30
:10049800E651800A346EE451800A3458D8A027D037
:1004A800100EE325346E000EE421356E3450E55D00
:1004B800E651800A366E3550800A3658D8B017D0C3
:1004C800E3C034F0E4C035F0341E351E344A352A12
:1004D800E5513426E6513522D89034363536800E2B
:1004E8003424D96E000E3520DA6EDF508912630E7F
:1004F800E325346E000EE421356E3450E55DE65197
:10050800800A366E3550800A3658D8A029D0730E26
:10051800E325346E000EE421356E3450E55DE65176
:10052800800A366E3550800A3658D8B019D0630E16
:10053800E325346E000EE421356E341E351E344A30
:10054800352AE5513426E6513522D89034363536E9
:10055800800E3424D96E000E3520DA6EDF508912F1
:10056800000EDA6F280ED96FD907D8A0DA07D92973
:10057800FBE1DA29D8A4F8D7000E896E000EDC6FEB
:10058800280EDB6FDB07D8A0DC07DB29FBE1DC29C1
:10059800D8A4F8D7E54BE62BE6BFBAD5E65101E17A
:1005A800B1D5300EE319E411D8A404D0000EE06FE1
:1005B800010EDF6F530EE319E411D8A40AD0DD074A
:1005C800D8A0DE07DD51DE11D8B403D0E307D8A0E8
:1005D800E407DF51E327E051E423E4BF12D0E451FC
:1005E80004E1550EE35DD8A00CD0000EDE6F780E46
:1005F800DD6FFF0EE46FF10EE36F000EE06F030E88
:10060800DF6FD707D8A0D807D72903E1D829D8B4EE
:10061800120070D522EE78F011EE00F0590EDBCF03
:10062800E3FFE806FCE221EEEEF011EE76F0070EAD
:10063800DBCFE3FFE806FCE2000E0101656FA00EC8
:10064800646F000E856F000E846FE80E806F030ED6
:10065800816F000E826F000E836F000E696F000EAF
:10066800686F000E6B6F000E6A6F000E5B6F030EF3
:100678005A6F000E676F000E666F000E716F000EE6
:10068800706F020E5D6FBC0E5C6F6ED283BF10D0B0
:1006980083518211811103E18005D8A009D0E20EAF
:1006A8008027FF0E8123FF0E8223FF0E83230CD0A9
:1006B800000E5F6F140E5E6F5E07D8A05F075E299D
:1006C800FBE15F29D8A4F8D76A056B11D8A421D01B
:1006D800000E6B6F000E6A6F0DD0000E7B6F000E60
:1006E8007A6F000E7D6F000E7C6F7CC178F17DC142
:1006F80079F10FD084C13AF085C13BF03B50000A34
:10070800D8A407D03A50030AD8B4EBD7070AD8B40C
:10071800E4D768516911D8A419D083BF07D0835191
:100728008211811113E18005D8B010D0000E696FD5
:10073800010E686F000E6B6F010E6A6F000E806FFE
:10074800000E816F000E826F000E836F000E876FA0
:10075800000E866F87BF49D0875105E1040E865D7C
:10076800D8B07CD142D07AD1000E7F6F1C0E7E6F3C
:100778007E07D8A07F077E29FBE17F29D8B44DD01A
:10078800F7D7000E7F6F0F0E7E6F7E07D8A07F070A
:100798007E29FBE17F29D8B440D0F7D7000E7F6FC0
:1007A800000E7E6F7E07D8A07F077E29FBE17F2998
:1007B800D8B433D0F7D7000E7F6F0A0E7E6F7E074E
:1007C800D8A07F077E29FBE17F29D8B426D0F7D7A8
:1007D800000E7F6F100E7E6F7E07D8A07F077E29E0
:1007E800FBE17F29D8B419D0F7D784C13AF085C185
:1007F8003BF03B50000AD8A410D03A50000AD8B4B5
:10080800B3D7010AD8B4BDD7030AD8B4C7D7010AE9
:10081800D8B4D1D7070AD8B4DBD770C134F071C1C6
:1008280035F0000E376E120E366E77EC09F0000EBA
:1008380034240101726F010E3520736F000E756F3D
:10084800000E746F75BF06D075514BE1090E745DCB
:10085800D8B047D0D8908635D96E8735DA6E760EFF
:10086800D926010EDA22DE50DE10D8B413D072C1B8
:10087800D9FF73C1DAFFDF50896E72C1D9FF73C126
:10088800DAFFDECF3AF0DDCF3BF03BC03AF03B6A0F
:100898003A5003D0000E896E000E8C6E000E616F08
:1008A8003C0E606F6007D8A061076029FBE16129F1
:1008B800D8A4F8D7000E896E000E8C6E000E636FF8
:1008C8003C0E626F6207D8A063076229FBE16329C7
:1008D800D8A4F8D7744B752B020E7227000E732319
:1008E800B1D7E80E6C6F030E6D6F000E6E6F000EC1
:1008F8006F6F84058511D8B405D0020E841985114F
:10090800D8A42AD084058511D8A408D087BF14D0CC
:10091800875104E1020E865DD8A00ED0020E84191C
:100928008511D8A411D086518711D8B405D0020EEC
:1009380086198711D8A408D080516C5F81516D5BEE
:1009480082516E5B835171D080516C2781516D2328
:1009580082516E23835143D084518511D8B466D017
:10096800040E84198511D8A408D087BF14D08751E4
:1009780004E1020E865DD8A00ED0030E84198511FD
:10098800D8A42FD086518711D8B405D0020E861965
:100998008711D8A426D080C13AF081C13BF082C12A
:1009A8003CF083C13DF03A1E3B1E3C1E3D1E3A2AD8
:1009B800000E3B223C223D22E80E3A243E6E030EF6
:1009C8003B203F6E000E3C20406E000E3D20416EE5
:1009D8003E506C273F506D2340506E2341506F238B
:1009E80025D080C13AF081C13BF082C13CF083C17F
:1009F8003DF03A1E3B1E3C1E3D1E3A2A000E3B228D
:100A08003C223D22E80E3A243E6E030E3B203F6E08
:100A1800000E3C20406E000E3D20416E3E506C5F43
:100A28003F506D5B40506E5B41506F5BFF0E6C2713
:100A3800FF0E6D23FF0E6E23FF0E6F236C29F6E168
:100A48006D29F4E16E29F2E16F29D8A4EFD7864B1E
:100A5800872B87BFCAD6875101E180D6664B672BA3
:100A68005A51661913E15B516719D8A40FD0000ECB
:100A7800676F000E666F704B712B050E7019711140
:100A8800D8A404D0000E716F000E706F6407D8A050
:100A98006507642969E16529D8A466D0000E656FE9
:100AA800A00E646FE80E806F030E816F000E826FD8
:100AB800000E836F000E696F000E686F844B852BE4
:100AC80084C134F085C135F0000E376E050E366EE0
:100AD800C2EC08F034C084F135C085F1000E010184
:100AE800876F000E866F87BF06D0875125E1040EF9
:100AF800865DD8B021D0D8908635D96E8735DA6E24
:100B0800760ED926010EDA22000EDE6E000EDD6E9C
:100B1800864B872BE8D7000E7D6F010E7C6F7CC15A
:100B280078F17DC179F1000E7B6F010E7A6F000EAE
:100B3800776F010E766F18D084C13AF085C13BF00B
:100B48003B50000AD8A410D03A50000AD8B4EFD7C6
:100B5800010AD8B4E8D7030AD8B4DDD7010AD8B453
:100B6800DAD7070AD8B4DFD75C07D8A05D075C29B5
:100B780003E15D29D8B4120089D5000E0101876F01
:100B8800000E866F22EE00F011EE00F0770EDBCF3C
:100B9800E3FFE806FCE2030E796FE80E786F41D1B7
:100BA800FAC134F0FBC135F0000E376E0A0E366E0E
:100BB80080EC08F034C03CF035C03DF034EC08F06F
:100BC800FAC134F0FBC135F0000E376E0A0E366EEE
:100BD800C2EC08F034C03CF035C03DF034EC08F00D
:100BE800000E01018F6F500E8E6F8E07D8A08F07F1
:100BF8008E29FBE18F29D8A4F8D7864B872B86A7A7
:100C080002D00A0E01D0000E896EF6C134F0F7C189
:100C180035F0000E376E0A0E366E80EC08F034C0E0
:100C28007AF135C07BF1000E896EF6C134F0F7C158
:100C380035F0000E376E0A0E366EC2EC08F034C07E
:100C48007CF135C07DF1000E01018F6F500E8E6F63
:100C58008E07D8A08F078E29FBE18F29D8A4F8D753
:100C68007AC13CF07BC13DF034EC08F07CC13CF02B
:100C78007DC13DF034EC08F0000E01018F6F500E7D
:100C88008E6F8E07D8A08F078E29FBE18F29D8A4F5
:100C9800F8D786A702D00A0E01D0000E896EF8C1D7
:100CA80034F0F9C135F0000E376E0A0E366E80EC5E
:100CB80008F034C07EF135C07FF1000E896EF8C1AE
:100CC80034F0F9C135F0000E376E0A0E366EC2ECFC
:100CD80008F034C080F135C081F1000E01018F6F3A
:100CE800500E8E6F8E07D8A08F078E29FBE18F29B3
:100CF800D8A4F8D77EC13CF07FC13DF034EC08F0B1
:100D080080C13CF081C13DF034EC08F0040E0101D3
:100D18008F6FC70E8E6F8E07D8A08F078E29FBE1C5
:100D28008F29D8A4F8D7000E8D6F000E8C6F8DBF59
:100D380006D08D516AE1060E8C5DD8B066D08CC1A4
:100D480034F08DC135F0000E376E140E366E77EC28
:100D580009F0000E34240101886F010E3520896FD7
:100D6800000E8B6F000E8A6F8BBF06D08B513AE155
:100D78000A0E8A5DD8B036D088C1D9FF89C1DAFF9A
:100D8800DF50896E88C1D9FF89C1DAFFDECF3EF016
:100D9800DDCF3FF03FC03EF03F6A3E508C6E000E04
:100DA800836F280E826F8207D8A083078229FBE110
:100DB8008329D8A4F8D7000E896E000E8C6E000E19
:100DC800856F280E846F8407D8A085078429FBE1E6
:100DD8008529D8A4F8D78A4B8B2B020E8827000EBA
:100DE8008923C2D7000E8F6F640E8E6F8E07D8A02E
:100DF8008F078E29FBE18F29D8A4F8D78C4B8D2B30
:100E08008DBF9DD78D5101E196D7040E8F6FC70E08
:100E18008E6F8E07D8A08F078E29FBE18F29D8A463
:100E2800F8D77807D8A0790778517911D8B4120083
:100E3800B7D60000FC03B203250333038B03330347
:100E48002503B203FC038C039E01B3032303210291
:100E5800110213033303E601C70003003F00F90042
:100E6800D00110031003D001F9003F000300030371
:100E7800FF03C0016000300030006000C001FF03C4
:100E8800030300000000000000008003400300038B
:100E980000000000000001030302CF03DC00700023
:100EA8003800EC00CF030302010300000002200118
:100EB800D0007F00A70210010000000000008000A1
:100EC800300190007F009702200120000000800080
:100ED800080188005000BF001703200040000000F0
:100EE80000004001200190007F035700200000000F
:100EF8000000000000020001B0027F01370000007E
:100F0800000000000600FACF22F0FBCF23F0E9CF63
:100F180024F0EACF25F0E1CF26F0E2CF27F0D9CFB1
:100F280028F0DACF29F0F3CF2AF0F4CF2BF0F6CF60
:100F38002CF0F7CF2DF0F8CF2EF0F5CF2FF044C0DE
:100F480030F045C031F046C032F047C033F09DB0B4
:100F58009EA012D03C0ECF6EAF0ECE6E9E90424A2F
:100F6800432A050E42184310D8A406D0000E436E3B
:100F7800000E426E54EC09F033C047F032C046F020
:100F880031C045F030C044F02FC0F5FF2EC0F8FF47
:100F98002DC0F7FF2CC0F6FF2BC0F4FF2AC0F3FFCB
:100FA80029C0DAFF28C0D9FF27C0E2FF26C0E1FF29
:100FB80025C0EAFF24C0E9FF23C0FBFF22C0FAFFD7
:100FC800449211003A0EF66E0E0EF76E000EF86E91
:100FD80002EE00F010EED2F00900F5CFEEFFE5507A
:100FE800E150FAE1F40EF66E110EF76E000EF86E8F
:100FF80001EE90F010EE66F00900F5CFEEFFE55037
:10100800E150FAE1350EF66E130EF76E000EF86E2B
:1010180000EEE7F010EE19F00900F5CFEEFFE5500D
:10102800E150FAE1140EF66E130EF76E000EF86E2C
:1010380000EE01F010EE21F00900F5CFEEFFE550CB
:10104800E150FAE10101F96BF86BF76BF66B436A53
:10105800426A44904492000EF86E00012DEF09F0A8
:1010680021EE90F010EE80F0310EDBCFE3FFE806C2
:10107800FCE23CC034F03DC035F0000E376E050E82
:10108800366E77EC09F0800E34240001B66F000E3E
:101098003520B76F000EB96F000EB86FB9BF06D014
:1010A800B95129E1050EB85DD8B01200B6C0D9FF14
:1010B800B7C0DAFFDF50896E000EB36F280EB26F2B
:1010C800B207D8A0B307B229FBE1B329D8A4F8D74F
:1010D800000E896E000EB56F280EB46FB407D8A045
:1010E800B507B429FBE1B529D8A4F8D7B84BB92B73
:1010F800B64BB72BD3D71200000E396E37AE06D0D9
:10110800366C371ED8B0372A010E396E35AE06D088
:10111800346C351ED8B0352A010E391A000E3B6ED4
:10112800000E3A6E36503710D8B41CD0010E386E07
:1011380004D0D89036363736382A37AEFAD7D89012
:101148003A363B363650345C37503558D8A005D03F
:101158003650345E3750355A3A80D8903732363266
:10116800382EEDD73950D8B404D03A6C3B1ED8B0DD
:101178003B2A3AC034F03BC035F01200000E396EFD
:1011880035AE06D0346C351ED8B0352A010E396E0E
:1011980037AE04D0366C371ED8B0372A36503710E1
:1011A800D8B418D0010E386E04D0D89036363736F9
:1011B800382A37AEFAD73650345C37503558D8A06D
:1011C80004D03650345E3750355AD89037323632DC
:1011D800382EF1D73950D8B404D0346C351ED8B075
:1011E800352A34C034F035C035F012001F11111102
:1011F8001F10121F10101C15151517101115151F8B
:101208000704041F04171515151D1F1414141C01B9
:101218000101011F1F1515151F070505051F3200C0
:1012280036001C0008000800080008000800080034
:1012380008000800080008002A001C0008003E7882
:1012480078E0C7077CF001FF3EF8010000000000CD
:101258000000D388D38AD38CD08EB50ECD6E3C0EC9
:10126800CF6EB00ECE6E9D809F809E90F28E000E47
:101278000101FB6F150EFA6F000EF76F000EF66F87
:10128800000E926E000E956E000E8C6E000E896E2A
:10129800C1EC05F00EEC03F009EC00F0F9D7FFD72C
:1012A8000101F84BF92B3C0EF819F911D8A41200DA
:1012B800000EF96F000EF86FF64BF72B3C0EF6197F
:1012C800F711D8A41200000EF76F000EF66FFA4B54
:1012D800FB2B180EFA19FB11D8A41200000EFB6F95
:1012E800000EFA6F120034503602F3CF38F0F4CF04
:1012F80039F034503702F350392635503602F3505E
:10130800392638C034F039C035F01200000C1E3EC2
:101318007C3E1E0C00001F15151515070C100C0738
:101328000E1111110E1F10101010FFAA55121515CD
:1013380015091F0204081F1C0A090A1C1F05050DB0
:061348001203011F010366
:020000040020DA
:08000000FFFFFFFFFFFFFFFF00
:020000040030CA
:0E000000FF081F1EFF8185FF0FC00FE00F409D
:00000001FF
