:0400000007EF00F016
:1000080069824DED0DF0ADEF0DF020EE96F013EE98
:1000180022F0070EDBCFE3FFE806FCE2000E030147
:100028000D6F780E0C6F000E316F000E306F030EDF
:10003800336FF20E326F000E116F000E106F000E4C
:10004800136F000E126F000E156F030E146F000E63
:10005800216F000E206F000E2D6F000E2C6F010E09
:100068002B6FE00E2A6F4DD233BF0AD0335103E114
:100078003205D8A005D0E20E3227FF0E33230CD06C
:10008800000E356F140E346F3407D8A035073429A5
:10009800FBE13529D8A4F8D712051311D8A421D02B
:1000A800000E136F000E126F0DD0000E276F000E9A
:1000B800266F000E296F000E286F28C324F329C36A
:1000C80025F30FD030C319F031C31AF01A50000AC3
:1000D800D8A407D01950030AD8B4EBD7070AD8B464
:1000E800E4D710511111D8A413D033BF05D0335120
:1000F8000FE13205D8B00CD0000E116F010E106F51
:10010800000E136F010E126F000E336F000E326F68
:10011800000E376F000E366F37BF49D0375105E1F3
:10012800040E365DD8B07AD142D078D1000E356F42
:100138001C0E346F3407D8A035073429FBE1352964
:10014800D8B44DD0F7D7000E356F0F0E346F340783
:10015800D8A035073429FBE13529D8B440D0F7D7E2
:10016800000E356F000E346F3407D8A035073429D8
:10017800FBE13529D8B433D0F7D7000E356F0A0E16
:10018800346F3407D8A035073429FBE13529D8B4B2
:1001980026D0F7D7000E356F100E346F3407D8A06D
:1001A80035073429FBE13529D8B419D0F7D730C33E
:1001B80019F031C31AF01A50000AD8A410D01950F7
:1001C800000AD8B4B3D7010AD8B4BDD7030AD8B443
:1001D800C7D7010AD8B4D1D7070AD8B4DBD72CC3FC
:1001E80013F02DC314F0000E166E120E156E3FECB0
:1001F8000FF0200E132403012E6F010E14202F6F11
:10020800000E1B6F000E1A6F1BBF06D01B514BE16F
:10021800090E1A5DD8B047D0D8903635D96E373523
:10022800DA6E220ED926030EDA22DE50DE10D8B49A
:1002380013D02EC3D9FF2FC3DAFFDF50896E2EC328
:10024800D9FF2FC3DAFFDECF19F0DDCF1AF01AC0BD
:1002580019F01A6A195003D0000E896E000E8C6EC0
:10026800000E016F3C0E006F0007D8A0010700299F
:10027800FBE10129D8A4F8D7000E896E000E8C6E18
:10028800000E036F3C0E026F0207D8A00307022975
:10029800FBE10329D8A4F8D71A4B1B2B020E2E27F3
:1002A800000E2F23B1D7F20E166F030E176F000E34
:1002B800186F000E196F30053111D8B405D0020E31
:1002C80030193111D8A43CD030053111D8A408D048
:1002D80037BF14D0375104E1020E365DD8A00ED0D6
:1002E800020E30193111D8A41AD036513711D8B4AA
:1002F80005D0020E36193711D8A411D032C319F01F
:1003080033C31AF0000E1ABEFF0E1B6E1C6E195076
:10031800165F1A50175B1B50185B1C5066D032C30F
:1003280019F033C31AF0000E1ABEFF0E1B6E1C6EB6
:10033800195016271A5017231B5018231C5039D050
:1003480030513111D8B452D0040E30193111D8A41B
:1003580008D037BF14D0375104E1020E365DD8A05B
:100368000ED0030E30193111D8A425D036513711CB
:10037800D8B405D0020E36193711D8A41CD032C310
:1003880019F033C31AF0191E1A1E194A1A2AF20E46
:1003980019241B6E030E1A201C6E1D6A1CBE1D0636
:1003A8001D501E6E1B5016271C5017231D50182356
:1003B8001E5019231BD032C319F033C31AF0191E6B
:1003C8001A1E194A1A2AF20E19241B6E030E1A2035
:1003D8001C6E1D6A1CBE1D061D501E6E1B50165F2E
:1003E8001C50175B1D50185B1E50195BFF0E16271B
:1003F800FF0E1723FF0E1823FF0E19231629F6E107
:100408001729F4E11829F2E11929D8A4EFD7364BB6
:10041800372B37BFCCD6375101E182D6204B212B61
:100428001451201913E115512119D8A40FD0000E29
:10043800216F000E206F2C4B2D2B060E2C192D1121
:10044800D8A404D0000E2D6F000E2C6F0C07D8A076
:100458000D070C2956E10D29D8A453D0000E0D6FB5
:10046800780E0C6F030E336FF20E326F000E116FA1
:10047800000E106F304B312B000E376F000E366FA9
:1004880037BF06D0375125E1040E365DD8B021D0EC
:10049800D8903635D96E3735DA6E220ED926030E46
:1004A800DA22000EDE6E000EDD6E364B372BE8D7F3
:1004B800000E296F010E286F28C324F329C325F3E2
:1004C800000E276F010E266F000E236F010E226F9C
:1004D80018D030C319F031C31AF01A50000AD8A442
:1004E80010D01950000AD8B4EFD7010AD8B4E8D709
:1004F800030AD8B4DDD7010AD8B4DAD7070AD8B4C2
:10050800DFD72A07D8A02B072A2902E12B29D8A44C
:10051800ABD5000E2B6F780E2A6F000E336F000ECE
:10052800326F07D1460E3227000E332333BF0BD06C
:10053800110E325D130E3359D8A005D0130E336F48
:10054800100E326F0CD0000E356F050E346F340765
:10055800D8A035073429FBE13529D8A4F8D732C308
:1005680034F333C335F33407D8A035073429FBE116
:100578003529D8A4F8D72CC313F02DC314F0000ED6
:10058800166E120E156E3FEC0FF0200E13240301A9
:100598002E6F010E14202F6F000E1D6F000E1C6FA2
:1005A8001DBF06D01D513AE1090E1C5DD8B036D0EA
:1005B8002EC3D9FF2FC3DAFFDF50896E2EC3D9FFB0
:1005C8002FC3DAFFDECF19F0DDCF1AF01AC019F009
:1005D8001A6A19508C6E000E056F3C0E046F0407E2
:1005E800D8A005070429FBE10529D8A4F8D7000EEF
:1005F800896E000E8C6E000E076F3C0E066F0607A4
:10060800D8A007070629FBE10729D8A4F8D71C4B6F
:100618001D2B020E2E27000E2F23C2D7130E0F6F8D
:10062800100E0E6F32510E5F33510F5B0E07D8A0BC
:100638000F070E29FBE10F29D8A4F8D7000E1F6F6A
:10064800000E1E6F1FBF06D01F513AE1090E1E5D36
:10065800D8B036D0020E2E5F000E2F5B2EC3D9FF06
:100668002FC3DAFFDF50896E2EC3D9FF2FC3DAFFFD
:10067800DECF19F0DDCF1AF01AC019F01A6A195036
:100688008C6E000E096F3C0E086F0807D8A009078A
:100698000829FBE10929D8A4F8D7000E896E000EB5
:1006A8008C6E000E0B6F3C0E0A6F0A07D8A00B0762
:1006B8000A29FBE10B29D8A4F8D71E4B1F2BC2D758
:1006C8002BBF1FD02B5104E1290E2A5DD8A019D0C9
:1006D800204B212B1451201920E115512119D8A4A0
:1006E8001CD0000E216F000E206F2C4B2D2B060EF8
:1006F8002C192D11D8A411D0000E2D6F000E2C6FBF
:100708000CD0000E356F0F0E346F3407D8A03507A4
:100718003429FBE13529D8A4F8D7130E356F560EC6
:10072800346F3407D8A035073429FBE13529D8A41C
:10073800F8D72A07D8A02B072A2903E12B29D8B4F0
:100748001200F0D620EE80F013EE38F00B0EDBCF5F
:10075800E3FFE806FCE2000E0301016F040E006FE0
:10076800000E036F000E026F82D1000E456F080E57
:10077800446F88D0380E1A6F030E1B6F000E1F6F60
:10078800000E1E6F1FBF06D01F517CE1060E1E5DB6
:10079800D8B078D0B70E206F000E216F000E236FEF
:1007A800000E226F23BF06D0235155E1150E225D9E
:1007B800D8B051D01AC3D9FF1BC3DAFFDE50DE1000
:1007C800D8B416D020C3D9FF21C3DAFFDF50896E11
:1007D80020C3D9FF21C3DAFFDECF13F0DDCF14F039
:1007E80014C013F0146A13BE146813508C6E10D022
:1007F800000E896E000E8C6E000E4D6F010E4C6F50
:100808004C07D8A04D074C29FBE14D29D8A4F8D7AF
:10081800000E056F1E0E046F0407D8A005070429F3
:10082800FBE10529D8A4F8D7000E8C6E8CCF89FF80
:10083800000E076F1E0E066F0607D8A007070629C9
:10084800FBE10729D8A4F8D7224B232B020E202737
:10085800000E2123A7D7010E4D6FFE0E4C6F4C07DB
:10086800D8A04D074C29FBE14D29D8A4F8D71E4B39
:100878001F2B020E1A27000E1B231FBF8BD71F51D9
:1008880001E184D74407D8A04507442902E1452956
:10089800D8A470D7000E456F0F0E446F000E256F59
:1008A800000E246F9DD0380E1C6F030E1D6F000EB6
:1008B800476F000E466F47BF08D0475105E1060E47
:1008C800465DD8B08DD001D08BD0B70E266F000E04
:1008D800276F000E296F000E286F29BF06D02951F7
:1008E80055E1150E285DD8B051D01CC3D9FF1DC3E2
:1008F800DAFFDE50DE10D8B416D026C3D9FF27C3DE
:10090800DAFFDF50896E26C3D9FF27C3DAFFDECFAF
:1009180013F0DDCF14F014C013F0146A13BE14687A
:1009280013508C6E10D0000E896E000E8C6E000E67
:10093800096F010E086F0807D8A009070829FBE10D
:100948000929D8A4F8D7000E0B6F1E0E0A6F0A07E4
:10095800D8A00B070A29FBE10B29D8A4F8D7000E69
:100968008C6E8CCF89FF000E0D6F1E0E0C6F0C075E
:10097800D8A00D070C29FBE10D29D8A4F8D7284BDE
:10098800292B020E2627000E2723A7D7010E4D6F0D
:10099800FE0E4C6F46514711D8A40FD044A105D084
:1009A80024514C2725514D2304D024514C5F255107
:1009B8004D5B210E2427000E25234C07D8A04D0798
:1009C8004C29FBE14D29D8A4F8D7464B472B020EFA
:1009D8001C27000E1D2347BF78D7475101E16FD769
:1009E8004407D8A04507442903E14529D8B42BD0AA
:1009F8005AD7000E396F000E386F000E436F010E84
:100A08000FD0000E416F010E406F40C33CF341C34D
:100A18003DF33CC338F33DC339F3000E436F000E7A
:100A2800426F42C33AF343C33BF321D0000E436FF6
:100A3800010E426F42C33EF343C33FF33EC33AF352
:100A48003FC33BF314D0024B032B02C313F003C381
:100A580014F01450000AD8A40AD01350010AD8B4CC
:100A6800C8D7030AD8B4CDD7010AD8B4DFD700074E
:100A7800D8A00107002902E10129D8A476D6000EE2
:100A88004B6F0F0E4A6F54D0B70E2A6F000E2B6FA4
:100A9800000E2D6F000E2C6F2DBF06D02D513CE19E
:100AA800150E2C5DD8B038D02AC3D9FF2BC3DAFF76
:100AB800DF50896E2AC3D9FF2BC3DAFFDECF13F0CC
:100AC800DDCF14F014C013F0146A13BE1468135069
:100AD8008C6E000E0F6F1E0E0E6F0E07D8A00F073C
:100AE8000E29FBE10F29D8A4F8D7000E8C6E8CCF05
:100AF80089FF000E116F1E0E106F1007D8A0110786
:100B08001029FBE11129D8A4F8D72C4B2D2B020E64
:100B18002A27000E2B23C0D73C0E4D6F8C0E4C6F2E
:100B28004C07D8A04D074C29FBE14D29D8A4F8D78C
:100B38004A07D8A04B074A29A7E14B29D8A4A4D72C
:100B4800000E4B6F140E4A6F54D0B70E2E6F000E66
:100B58002F6F000E316F000E306F31BF06D031514C
:100B68003CE1150E305DD8B038D02EC3D9FF2FC365
:100B7800DAFFDF50896E2EC3D9FF2FC3DAFFDECF2D
:100B880013F0DDCF14F014C013F0146A13BE146808
:100B980013508C6E000E136F1E0E126F1207D8A022
:100BA80013071229FBE11329D8A4F8D7000E8C6E7D
:100BB8008CCF89FF000E156F1E0E146F1407D8A076
:100BC80015071429FBE11529D8A4F8D7304B312B88
:100BD800020E2E27000E2F23C0D7270E4D6F100EA2
:100BE8004C6F4C07D8A04D074C29FBE14D29D8A4E0
:100BF800F8D74A07D8A04B074A29A7E14B29D8A418
:100C0800A4D7000E4B6F280E4A6F000E496F000ED6
:100C1800486F71D049BF06D0495106E1140E485DAE
:100C2800D8B002D0484B492B000E336F000E326FFC
:100C380033BF06D033515FE10B0E325DD8B05BD0C5
:100C4800B70E346F000E356F000E376F000E366F1B
:100C580037BF06D037513CE1150E365DD8B038D0D5
:100C680034C3D9FF35C3DAFFDF50896E34C3D9FFE7
:100C780035C3DAFFDECF13F0DDCF14F014C013F064
:100C8800146A13BE146813508C6E48C316F349C314
:100C980017F31607D8A017071629FBE11729D8A4B8
:100CA800F8D7000E8C6E8CCF89FF48C318F349C360
:100CB80019F31807D8A019071829FBE11929D8A48E
:100CC800F8D7364B372B020E3427000E3523C0D702
:100CD800000E4D6F230E4C6F4C07D8A04D074C29C2
:100CE800FBE14D29D8A4F8D7324B332B33BFA8D713
:100CF800335101E1A1D74A07D8A04B074A298AE115
:100D08004B29D8B4120086D7000E206E030E1F6E32
:100D1800000E1E6E780E1D6EFF0E246EF10E236EF1
:100D2800020E186E9A0E176E87D2000E266E000EEF
:100D3800256E26BE08D0265005E1640E255CD8B085
:100D48004BD201D049D2000E226E000E216E2DD05A
:100D5800040E2126000E2222040E2126000E222235
:100D6800040E2126000E2222040E2126000E222225
:100D7800040E2126000E2222040E2126000E222215
:100D8800040E2126000E2222040E2126000E222205
:100D9800040E2126000E22222106D8A02206212890
:100DA800FBE12228D8B425D0F7D725C013F026C0F8
:100DB80014F01450000AD8A41CD013500A0AD8B44E
:100DC800C7D71A0AD8B4C8D7060AD8B4C9D70A0ADE
:100DD800D8B4CAD73E0AD8B4CBD70A0AD8B4CCD725
:100DE800060AD8B4CDD71A0AD8B4CED70E0AD8B4C2
:100DF800CFD726BE06D0265020E1140E255CD8B0E9
:100E08001CD026BE1AD0265004E10F0E255CD8A0AF
:100E180014D0F10E136EFF0E146E25C015F026C007
:100E280016F013501526145016225C0E1524D96E90
:100E3800000E1620DA6EDF50891226BE06D0265024
:100E480020E11A0E255CD8B01CD026BE1AD0265038
:100E580004E1150E255CD8A014D0EB0E136EFF0E1E
:100E6800146E25C015F026C016F013501526145020
:100E78001622570E1524D96E000E1620DA6EDF5092
:100E8800891226BE06D0265020E1200E255CD8B057
:100E98001CD026BE1AD0265004E11B0E255CD8A013
:100EA80014D0E50E136EFF0E146E25C015F026C083
:100EB80016F01350152614501622520E1524D96E0A
:100EC800000E1620DA6EDF50891226BE22D0265078
:100ED80004E1210E255CD8A01CD026BE06D02650E1
:100EE80018E1260E255CD8B014D0DF0E136EFF0E65
:100EF800146E25C015F026C016F013501526145090
:100F080016224D0E1524D96E000E1620DA6EDF500B
:100F1800891226BE06D0265020E12C0E255CD8B0BA
:100F28001CD026BE1AD0265004E1270E255CD8A076
:100F380014D0D90E136EFF0E146E25C015F026C0FE
:100F480016F01350152614501622B20E1524D96E19
:100F5800000E1620DA6EDF50891226BE22D02650E7
:100F680004E12D0E255CD8A01CD026BE06D0265044
:100F780018E1320E255CD8B014D0D30E136EFF0ED4
:100F8800146E25C015F026C016F0135015261450FF
:100F98001622AD0E1524D96E000E1620DA6EDF501B
:100FA800891226BE22D0265004E1330E255CD8A033
:100FB8001CD026BE06D0265018E1380E255CD8B0C5
:100FC80014D0CD0E136EFF0E146E25C015F026C07A
:100FD80016F01350152614501622A80E1524D96E93
:100FE800000E1620DA6EDF50891226BE22D0265057
:100FF80004E1390E255CD8A01CD026BE06D02650A8
:1010080018E13E0E255CD8B014D0C70E136EFF0E43
:10101800146E25C015F026C016F01350152614506E
:101028001622A30E1524D96E000E1620DA6EDF5094
:10103800891226BE22D0265004E13F0E255CD8A096
:101048001CD026BE06D0265018E1440E255CD8B028
:1010580014D0C10E136EFF0E146E25C015F026C0F5
:1010680016F013501526145016229E0E1524D96E0C
:10107800000E1620DA6EDF50891226BE22D02650C6
:1010880004E1580E255CD8A01CD026BE06D02650F8
:1010980018E1620E255CD8B014D0A80E136EFF0EAE
:1010A800146E25C015F026C016F0135015261450DE
:1010B80016228C0E1524D96E000E1620DA6EDF501B
:1010C80089122350255C2650800A136E2450800A0A
:1010D8001358D8A027D0100E2324136E000E2420F6
:1010E800146E1350255C2650800A156E1450800A21
:1010F8001558D8B017D023C013F024C014F0131E0D
:10110800141E134A142A2550132626501422D89048
:1011180013361436000E1324D96E010E1420DA6E1D
:10112800DF508912640E2324136E000E2420146EDF
:101138001350255C2650800A156E1450800A1558E5
:10114800D8A029D0740E2324136E000E2420146E08
:101158001350255C2650800A156E1450800A1558C5
:10116800D8B019D0640E2324136E000E2420146EF8
:10117800131E141E134A142A25501326265014220F
:10118800D89013361436000E1324D96E010E14208D
:10119800DA6EDF508912000E1A6E280E196E1906C3
:1011A800D8A01A061928FBE11A28D8A4F8D7000EE7
:1011B800896E000E1C6E280E1B6E1B06D8A01C061E
:1011C8001B28FBE11C28D8A4F8D7254A262A26BEC6
:1011D800BAD5265001E1B1D5300E23182410D8A471
:1011E80004D0000E206E010E1F6E540E231824101A
:1011F800D8A40AD01D06D8A01E061D501E10D8B4AB
:1012080003D02306D8A024061F50232620502422CA
:1012180024BE12D0245004E1560E235CD8A00CD072
:10122800000E1E6E780E1D6EFF0E246EF10E236EDC
:10123800000E206E030E1F6E1706D8A0180617287A
:1012480003E11828D8B4120070D5000E3E6E000EC7
:101258003D6E010E286EF40E276ED9D167C013F0CB
:1012680068C014F0000E166E0A0E156E3CEC0EF0F7
:1012780013C01BF014C01CF0FAEC0DF067C013F09B
:1012880068C014F0000E166E0A0E156EBCEC0EF057
:1012980013C01BF014C01CF0FAEC0DF0000E4C6EDD
:1012A800500E4B6E4B06D8A04C064B28FBE14C2841
:1012B800D8A4F8D73D4A3E2A3DA602D00A0E01D04E
:1012C800000E896E61C013F062C014F0000E166E35
:1012D8000A0E156E3CEC0EF013C029F014C02AF06B
:1012E800000E896E61C013F062C014F0000E166E15
:1012F8000A0E156EBCEC0EF013C02BF014C02CF0C7
:10130800000E4C6E500E4B6E4B06D8A04C064B2868
:10131800FBE14C28D8A4F8D729C01BF02AC01CF040
:10132800FAEC0DF02BC01BF02CC01CF0FAEC0DF001
:10133800000E4C6E500E4B6E4B06D8A04C064B2838
:10134800FBE14C28D8A4F8D73DA602D00A0E01D05C
:10135800000E896E63C013F064C014F0000E166EA0
:101368000A0E156E3CEC0EF013C02DF014C02EF0D2
:10137800000E896E63C013F064C014F0000E166E80
:101388000A0E156EBCEC0EF013C02FF014C030F02E
:10139800000E4C6E500E4B6E4B06D8A04C064B28D8
:1013A800FBE14C28D8A4F8D72DC01BF02EC01CF0A8
:1013B800FAEC0DF02FC01BF030C01CF0FAEC0DF069
:1013C800030E4C6ED40E4B6E4B06D8A04C064B2821
:1013D800FBE14C28D8A4F8D7BE0E496E010E4A6E20
:1013E800000E406E000E3F6E40BE06D040503CE1FD
:1013F8000E0E3F5CD8B038D049C0D9FF4AC0DAFFDA
:10140800DF50896E49C0D9FF4AC0DAFFDECF25F028
:10141800DDCF26F026C025F0266A25BE2668255091
:101428008C6E000E326E280E316E3106D8A0320650
:101438003128FBE13228D8A4F8D7000E896E000EB7
:101448008C6E000E346E280E336E3306D8A0340628
:101458003328FBE13428D8A4F8D73F4A402A020EA3
:101468004926000E4A22C0D7000E486E000E476E6D
:1014780048BE06D048506BE1040E475CD8B067D030
:1014880047C013F048C014F0000E166E140E156E07
:101498003FEC0FF0560E1324496E020E14204A6ECC
:1014A800000E426E000E416E42BE06D042503CE134
:1014B8000A0E415CD8B038D049C0D9FF4AC0DAFF1B
:1014C800DF50896E49C0D9FF4AC0DAFFDECF25F068
:1014D800DDCF26F026C025F0266A25BE26682550D1
:1014E8008C6E000E366E280E356E3506D8A0360680
:1014F8003528FBE13628D8A4F8D7000E896E000EEF
:101508008C6E000E386E280E376E3706D8A0380657
:101518003728FBE13828D8A4F8D7414A422A020ED6
:101528004926000E4A22C0D7000E4C6E640E4B6E40
:101538004B06D8A04C064B28FBE14C28D8A4F8D77A
:10154800474A482A48BE9CD7485001E195D7010E22
:101558004C6E2C0E4B6E4B06D8A04C064B28FBE16C
:101568004C28D8A4F8D7E10E436E000E446E000E46
:10157800466E000E456E46BE06D046503CE10D0E46
:10158800455CD8B038D043C0D9FF44C0DAFFDF503B
:10159800896E43C0D9FF44C0DAFFDECF25F0DDCF26
:1015A80026F026C025F0266A25BE266825508C6EB2
:1015B800000E3A6E280E396E3906D8A03A06392838
:1015C800FBE13A28D8A4F8D7000E896E000E8C6E7D
:1015D800000E3C6E280E3B6E3B06D8A03C063B280E
:1015E800FBE13C28D8A4F8D7454A462A020E4326F0
:1015F800000E4422C0D7030E4C6ED40E4B6E4B0621
:10160800D8A04C064B28FBE14C28D8A4F8D72706CD
:10161800D8A0280627502810D8B412001FD6000ECC
:101628001E6E000E1D6E000E206E000E1F6E000E48
:10163800226E000E216E000E246E000E236E010E27
:101648001C6EF40E1B6E38D121C013F022C014F0AA
:10165800000E166E120E156E3FEC0FF0100E1326CC
:10166800000E1422200E13242B6E010E14202C6E53
:10167800000E2A6E000E296E2ABE06D02A5046E1B8
:10168800090E295CD8B042D02BC0D9FF2CC0DAFF94
:10169800DF50896E2BC0D9FF2CC0DAFFDECF19F0DE
:1016A800DDCF1AF01AC019F01A6A19BE1A68195053
:1016B80002098C6E0C0E2914196E000E2A141A6E6B
:1016C80019501A10D8A48988000E2E6E3C0E2D6E63
:1016D8002D06D8A02E062D28FBE12E28D8A4F8D751
:1016E800000E896E8C90000E2E6E3C0E2D6E2D060F
:1016F800D8A02E062D28FBE12E28D8A4F8D7294AF1
:101708002A2A020E2B5E000E2C5AB6D7030E1D4A4B
:101718001E2A1D14196E000E1E141A6E19501A1066
:10172800D8A40BD0214A222A060E21182210D8A4A8
:1017380004D0000E226E000E216E000E2B6E020EDB
:101748002C6E000E266E000E256E26BE06D0265084
:101758003CE12B0E255CD8B038D02BC0D9FF2CC06B
:10176800DAFFDF50896E2BC0D9FF2CC0DAFFDECF3D
:1017780019F0DDCF1AF01AC019F01A6A19BE1A68E2
:10178800195002098C6E000E2E6E3C0E2D6E2D0621
:10179800D8A02E062D28FBE12E28D8A4F8D7000EB5
:1017A800896E8C90000E2E6E3C0E2D6E2D06D8A0E4
:1017B8002E062D28FBE12E28D8A4F8D7254A262A5C
:1017C800020E2B26000E2C22C0D723C013F024C0F3
:1017D80014F0000E166E180E156E3FEC0FF0A60EE4
:1017E80013242B6E020E14202C6E000E286E000E91
:1017F800276E28BE06D028503CE10C0E275CD8B0D6
:1018080038D02BC0D9FF2CC0DAFFDF50896E2BC02F
:10181800D9FF2CC0DAFFDECF19F0DDCF1AF01AC0DD
:1018280019F01A6A19BE1A68195002098C6E000E4E
:101838002E6E3C0E2D6E2D06D8A02E062D28FBE10F
:101848002E28D8A4F8D7000E896E8C90000E2E6E24
:101858003C0E2D6E2D06D8A02E062D28FBE12E2835
:10186800D8A4F8D7274A282A020E2B26000E2C22A5
:10187800C0D7030E1F4A202A1F14196E000E201409
:101888001A6E19501A10D8A40BD0234A242A030E12
:1018980023182410D8A404D0000E246E000E236E42
:1018A8000E0E2E6EEC0E2D6E2D06D8A02E062D28AF
:1018B800FBE12E28D8A4F8D71B06D8A01C061B28A5
:1018C80003E11C28D8B41200BFD618003C003C0025
:1018D8007800D000900110001000100010002400C3
:1018E8004C00FC0080008001FC009500FE00960082
:1018F800FD018000FC009500FE009500FC008000C2
:10190800FC009500FE009500FC008000FD0196009B
:10191800FE009501FC008000FC000C0004000000A3
:1019280000000000000003000B000700000000009A
:10193800000000000303FF030E0018003000300011
:1019480018000E00FF0303030003F0037C022E00BF
:10195800230023002E007C02F00300038C039E0169
:10196800330323032102110213033703E601C700DF
:101978000C000C000F01BC00FA0179007800780017
:101988007801F800B00100000C000C000F00BC0149
:10199800FA007901780078007800F80190002001B9
:1019A8000C000C008F00BC00FA0179007800780068
:1019B800F800F800B0010000320036001C000800F2
:1019C80008000800080008000800080008000800CF
:1019D80008002A001C000800000000022001D000B6
:1019E8007F00A70210010000000000008000300105
:1019F80090007F009702200120000000800008016D
:101A080088005000BF0017032000400000000000BD
:101A18004001200190007F035700200000000000D3
:101A2800000000020001B0027F0137000000000042
:101A3800000000020001800050007F00D701200153
:101A4800100000001F1111111F00001F00001C15BD
:101A5800151517101115151F0704041F0417151560
:101A6800151D1F1414141C000101011F1F15151545
:101A78001F070505051F0002000203030101CF012E
:101A8800DC0070003800EC00CF0101030302000203
:101A980000020600FACF01F0FBCF02F0E9CF03F015
:101AA800EACF04F0E1CF05F0E2CF06F0D9CF07F096
:101AB800DACF08F0F3CF09F0F4CF0AF0F6CF0BF045
:101AC800F7CF0CF0F8CF0DF0F5CF0EF069C00FF09E
:101AD8006AC010F06BC011F06CC012F09DB09EA0EF
:101AE80012D03C0ECF6EAF0ECE6E9E90654A662A1F
:101AF800050E65186610D8A406D0000E666E000E96
:101B0800656E1DEC0FF012C06CF011C06BF010C0C8
:101B18006AF00FC069F00EC0F5FF0DC0F8FF0CC0E9
:101B2800F7FF0BC0F6FF0AC0F4FF09C0F3FF08C0B7
:101B3800DAFF07C0D9FF06C0E2FF05C0E1FF04C015
:101B4800EAFF03C0E9FF02C0FBFF01C0FAFF699288
:101B58001100D20EF66E180EF76E000EF86E02EE39
:101B680000F010EEEEF00900F5CFEEFFE550E15081
:101B7800FAE1C00EF66E190EF76E000EF86E01EE61
:101B880000F010EEDAF00900F5CFEEFFE550E15075
:101B9800FAE1FC0EF66E1C0EF76E000EF86E00EE03
:101BA80080F010EE7BF00900F5CFEEFFE550E15034
:101BB800FAE1A40EF66E1E0EF76E000EF86E00EE39
:101BC8004DF010EE14F00900F5CFEEFFE550E150AE
:101BD800FAE1666A656A646A636A626A616A699058
:101BE8006992000EF86E0001F4EF0EF01BC013F0BE
:101BF8001CC014F0000E166E050E156E3FEC0FF0AB
:101C08008C0E1324216E010E1420226E000E246EF9
:101C1800000E236E24BE06D0245029E1050E235C55
:101C2800D8B0120021C0D9FF22C0DAFFDF50896E78
:101C3800000E1E6E280E1D6E1D06D8A01E061D283D
:101C4800FBE11E28D8A4F8D7000E896E000E206E7E
:101C5800280E1F6E1F06D8A020061F28FBE120288B
:101C6800D8A4F8D7234A242A214A222AD3D71200F3
:101C7800000E186E16AE06D0156C161ED8B0162AB1
:101C8800010E186E14AE06D0136C141ED8B0142AA8
:101C9800010E181A000E1A6E000E196E1550161045
:101CA800D8B41CD0010E176E04D0D890153616364D
:101CB800172A16AEFAD7D89019361A361550135C6B
:101CC80016501458D8A005D01550135E1650145A43
:101CD8001980D89016321532172EEDD71850D8B46F
:101CE80004D0196C1A1ED8B01A2A19C013F01AC0D9
:101CF80014F01200010000000000000000000000C5
:101D0800000C1E3E7C3E1E0C00000100000000007E
:101D180000001F15151515070C100C070E111111D1
:101D28000E1F1010101012151515090001000000E3
:101D380000800120006000100124000E0125030E20
:101D48000124001001600020008001000000000054
:101D58000100000000FE0007013702360237028644
:0F1D680002860287023602370237020701FE00A9
:101D7800000E186E14AE06D0136C141ED8B0142AB8
:101D8800010E186E16AE04D0156C161ED8B0162AA1
:101D980015501610D8B418D0010E176E04D0D8906C
:101DA80015361636172A16AEFAD71550135C165084
:101DB8001458D8A004D01550135E1650145AD89051
:101DC80016321532172EF1D71850D8B404D0136C28
:101DD800141ED8B0142A13C013F014C014F0120043
:101DE800D388D38AD38CD08EB50ECD6E3C0ECF6EF1
:101DF800B00ECE6E9D809F809E90F28E000E686E13
:101E0800150E676E000E626E000E616E000E926E09
:101E1800000E956E000E8C6E000E896E29EC09F08E
:101E280009EC00F088EC06F0A6EC03F013EC0BF0DC
:101E3800F5D7634A642A3C0E63186410D8A41200CC
:101E4800000E646E000E636E614A622A3C0E6118D1
:101E58006210D8A41200000E626E000E616E674A0E
:101E6800682A180E67186810D8A41200000E686E49
:101E7800000E676E120013501502F3CF17F0F4CF5F
:101E880018F013501602F350182614501502F35088
:101E9800182617C013F018C014F012001F02040807
:101EA8001F1C0A090A1C1F05050D1203011F010347
:020000040020DA
:08000000FFFFFFFFFFFFFFFF00
:020000040030CA
:0E000000FF081F1EFF8185FF0FC00FE00F409D
:00000001FF
