:0400000007EF00F016
:1000080066826BED07F0CBEF07F020EE21F010EEE3
:10001800A0F0090EDBCFE3FFE806FCE220EE01F0DA
:1000280010EE80F01F0EDBCFE3FFE806FCE220EEC7
:10003800FBF010EEAAF0040EDBCFE3FFE806FCE2CB
:1000480020EEF6F010EEAFF0040EDBCFE3FFE8068B
:10005800FCE220EEF1F010EEB4F0040EDBCFE3FF8B
:10006800E806FCE220EEECF010EEB9F0040EDBCF6F
:10007800E3FFE806FCE220EE3FF010EEBEF0040ECF
:10008800DBCFE3FFE806FCE220EE3AF010EEC3F027
:10009800040EDBCFE3FFE806FCE220EE35F010EEBD
:1000A800C8F0040EDBCFE3FFE806FCE220EE30F0F8
:1000B80010EECDF0040EDBCFE3FFE806FCE220EE05
:1000C8002BF010EED2F0040EDBCFE3FFE806FCE2E3
:1000D800FF0E0001E26FF10EE16FD769D869D969A7
:1000E800DA6965D2000EE46F000EE36FE4BF08D052
:1000F800E45105E15F0EE35DD8B04BD201D049D29F
:10010800000EE06F000EDF6F2DD0040EDF27000E0B
:10011800E023040EDF27000EE023040EDF27000E85
:10012800E023040EDF27000EE023040EDF27000E75
:10013800E023040EDF27000EE023040EDF27000E65
:10014800E023040EDF27000EE023040EDF27000E55
:10015800E023DF07D8A0E007DF29FBE1E029D8B4D6
:1001680025D0F7D7E3C056F0E4C057F05750000A3F
:10017800D8A41CD056500A0AD8B4C7D71A0AD8B47B
:10018800C8D7060AD8B4C9D70A0AD8B4CAD73E0A03
:10019800D8B4CBD70A0AD8B4CCD7060AD8B4CDD7A6
:1001A8001A0AD8B4CED70E0AD8B4CFD7E4BF22D013
:1001B800E45104E1050EE35DD8A01CD0E4BF06D0ED
:1001C800E45118E10A0EE35DD8B014D0FB0E566E68
:1001D800FF0E576EE3C058F0E4C059F05650582649
:1001E80057505922AA0E5824D96E000E5920DA6E9B
:1001F800DF508912E4BF22D0E45104E10B0EE35D25
:10020800D8A01CD0E4BF06D0E45118E1100EE35D7D
:10021800D8B014D0F50E566EFF0E576EE3C058F0E6
:10022800E4C059F05650582657505922AF0E58245A
:10023800D96E000E5920DA6EDF508912E4BF22D041
:10024800E45104E1110EE35DD8A01CD0E4BF06D050
:10025800E45118E1160EE35DD8B014D0EF0E566ED7
:10026800FF0E576EE3C058F0E4C059F056505826B8
:1002780057505922B40E5824D96E000E5920DA6E00
:10028800DF508912E4BF22D0E45104E1170EE35D88
:10029800D8A01CD0E4BF06D0E45118E11C0EE35DE1
:1002A800D8B014D0E90E566EFF0E576EE3C058F062
:1002B800E4C059F05650582657505922B90E5824C0
:1002C800D96E000E5920DA6EDF508912E4BF22D0B1
:1002D800E45104E11D0EE35DD8A01CD0E4BF06D0B4
:1002E800E45118E1220EE35DD8B014D0E30E566E47
:1002F800FF0E576EE3C058F0E4C059F05650582628
:1003080057505922BE0E5824D96E000E5920DA6E65
:10031800DF508912E4BF22D0E45104E1230EE35DEB
:10032800D8A01CD0E4BF06D0E45118E1280EE35D44
:10033800D8B014D0DD0E566EFF0E576EE3C058F0DD
:10034800E4C059F05650582657505922C30E582425
:10035800D96E000E5920DA6EDF508912E4BF22D020
:10036800E45104E1290EE35DD8A01CD0E4BF06D017
:10037800E45118E12E0EE35DD8B014D0D70E566EB6
:10038800FF0E576EE3C058F0E4C059F05650582697
:1003980057505922C80E5824D96E000E5920DA6ECB
:1003A800DF508912E4BF22D0E45104E12F0EE35D4F
:1003B800D8A01CD0E4BF06D0E45118E1340EE35DA8
:1003C800D8B014D0D10E566EFF0E576EE3C058F059
:1003D800E4C059F05650582657505922CD0E58248B
:1003E800D96E000E5920DA6EDF508912E4BF22D090
:1003F800E45104E1350EE35DD8A01CD0E4BF06D07B
:10040800E45118E13A0EE35DD8B014D0CB0E566E25
:10041800FF0E576EE3C058F0E4C059F05650582606
:1004280057505922D20E5824D96E000E5920DA6E30
:10043800DF508912E4BF22D0E45104E14A0EE35DA3
:10044800D8A01CD0E4BF06D0E45118E1540EE35DF7
:10045800D8B014D0B60E566EFF0E576EE3C058F0E3
:10046800E4C059F05650582657505922A00E582427
:10047800D96E000E5920DA6EDF508912E151E35D22
:10048800E451800A566EE251800A5658D8A027D007
:10049800100EE125566E000EE221576E5650E35DB0
:1004A800E451800A586E5750800A5858D8B017D06F
:1004B800E1C056F0E2C057F0561E571E564A572A5A
:1004C800E3515626E4515722D89056365736800EB7
:1004D8005624D96E000E5720DA6EDF5089125F0E4F
:1004E800E125566E000EE221576E5650E35DE45149
:1004F800800A586E5750800A5858D8A029D06F0ED5
:10050800E125566E000EE221576E5650E35DE45128
:10051800800A586E5750800A5858D8B019D05F0EC4
:10052800E125566E000EE221576E561E571E564A9A
:10053800572AE3515626E4515722D8905636573653
:10054800800E5624D96E000E5720DA6EDF508912BD
:10055800000EDC6F280EDB6FDB07D8A0DC07DB2979
:10056800FBE1DC29D8A4F8D7000E896E000EDE6FF7
:10057800280EDD6FDD07D8A0DE07DD29FBE1DE29C7
:10058800D8A4F8D7E34BE42BE4BFBAD5E45101E192
:10059800B1D5E14BE22BE2BF0AD0E25104E1510EA2
:1005A800E15DD8A004D0FF0EE26FF10EE16FFF0EFF
:1005B800D727FF0ED823FF0ED923FF0EDA23D7291A
:1005C80007E1D82905E1D92903E1DA29D8B41200CD
:1005D80089D521EE92F011EE00F0590EDBCFE3FF42
:1005E800E806FCE221EEECF011EE78F0070EDBCF26
:1005F800E3FFE806FCE2000E0101676FA00E666FDC
:10060800000E876F000E866FE00E826F030E836FF9
:10061800000E846F000E856F000E6B6F000E6A6F00
:10062800000E6D6F000E6C6F000E5F6F030E5E6F35
:10063800000E696F000E686F000E736F000E726F08
:100648005A695B695C695D696ED285BF10D0855156
:100658008411831103E18205D8A009D0E20E822714
:10066800FF0E8323FF0E8423FF0E85230CD0000E7C
:10067800616F140E606F6007D8A061076029FBE105
:100688006129D8A4F8D76C056D11D8A421D0000E23
:100698006D6F000E6C6F0DD0000E7D6F000E7C6FBD
:1006A800000E7F6F000E7E6F7EC17AF17FC17BF1F5
:1006B8000FD086C15CF087C15DF05D50000AD8A4F8
:1006C80007D05C50030AD8B4EBD7070AD8B4E4D7EC
:1006D8006A516B11D8A419D085BF07D085518411F0
:1006E800831113E18205D8B010D0000E6B6F010E94
:1006F8006A6F000E6D6F010E6C6F000E826F000E38
:10070800836F000E846F000E856F000E896F000ED8
:10071800886F89BF49D0895105E1040E885DD8B03A
:100728007CD142D07AD1000E816F1C0E806F800779
:10073800D8A081078029FBE18129D8B44DD0F7D70B
:10074800000E816F0F0E806F8007D8A08107802967
:10075800FBE18129D8B440D0F7D7000E816F000E95
:10076800806F8007D8A081078029FBE18129D8B450
:1007780033D0F7D7000E816F0A0E806F8007D8A09C
:1007880081078029FBE18129D8B426D0F7D7000E4C
:10079800816F100E806F8007D8A081078029FBE148
:1007A8008129D8B419D0F7D786C15CF087C15DF02C
:1007B8005D50000AD8A410D05C50000AD8B4B3D752
:1007C800010AD8B4BDD7030AD8B4C7D7010AD8B428
:1007D800D1D7070AD8B4DBD772C156F073C157F026
:1007E800000E596E120E586E7DEC09F0000E56245C
:1007F8000101746F010E5720756F000E776F000EA0
:10080800766F77BF06D077514BE1090E765DD8B089
:1008180047D0D8908835D96E8935DA6E780ED926C2
:10082800010EDA22DE50DE10D8B413D074C1D9FF1D
:1008380075C1DAFFDF50896E74C1D9FF75C1DAFF5F
:10084800DECF5CF0DDCF5DF05DC05CF05D6A5C50D2
:1008580003D0000E896E000E8C6E000E636F3C0E86
:10086800626F6207D8A063076229FBE16329D8A4F5
:10087800F8D7000E896E000E8C6E000E656F3C0E68
:10088800646F6407D8A065076429FBE16529D8A4CB
:10089800F8D7764B772B020E7427000E7523B1D745
:1008A800E00E6E6F030E6F6F000E706F000E716FAB
:1008B80086058711D8B405D0020E86198711D8A4E9
:1008C8002AD086058711D8A408D089BF14D08951A9
:1008D80004E1020E885DD8A00ED0020E8619871199
:1008E800D8A411D088518911D8B405D0020E88191E
:1008F8008911D8A408D082516E5F83516F5B8451EF
:10090800705B855171D082516E2783516F2384515A
:100918007023855143D086518711D8B466D0040E10
:1009280086198711D8A408D089BF14D0895104E149
:10093800020E885DD8A00ED0030E86198711D8A4A0
:100948002FD088518911D8B405D0020E8819891181
:10095800D8A426D082C15CF083C15DF084C15EF06A
:1009680085C15FF05C1E5D1E5E1E5F1E5C2A000E68
:100978005D225E225F22E00E5C24606E030E5D2025
:10098800616E000E5E20626E000E5F20636E605026
:100998006E2761506F23625070236350712325D0F6
:1009A80082C15CF083C15DF084C15EF085C15FF0F7
:1009B8005C1E5D1E5E1E5F1E5C2A000E5D225E22AE
:1009C8005F22E00E5C24606E030E5D20616E000EF7
:1009D8005E20626E000E5F20636E60506E5F615035
:1009E8006F5B6250705B6350715BFF0E6E27FF0E8A
:1009F8006F23FF0E7023FF0E71236E29F6E16F2916
:100A0800F4E17029F2E17129D8A4EFD7884B892B3A
:100A180089BFCAD6895101E180D6684B692B5E51DE
:100A2800681913E15F516919D8A40FD0000E696FD6
:100A3800000E686F724B732B050E72197311D8A4D0
:100A480004D0000E736F000E726F6607D8A0670798
:100A5800662969E16729D8A466D0000E676FA00EE1
:100A6800666FE00E826F030E836F000E846F000EB8
:100A7800856F000E6B6F000E6A6F864B872B86C1E1
:100A880056F087C157F0000E596E050E586EA9EC46
:100A980008F056C086F157C087F1000E0101896F32
:100AA800000E886F89BF06D0895125E1040E885D44
:100AB800D8B021D0D8908835D96E8935DA6E780EBD
:100AC800D926010EDA22000EDE6E000EDD6E884B8E
:100AD800892BE8D7000E7F6F010E7E6F7EC17AF1F9
:100AE8007FC17BF1000E7D6F010E7C6F000E796F68
:100AF800010E786F18D086C15CF087C15DF05D503B
:100B0800000AD8A410D05C50000AD8B4EFD7010A64
:100B1800D8B4E8D7030AD8B4DDD7010AD8B4DAD7ED
:100B2800070AD8B4DFD7FF0E5A27FF0E5B23FF0E44
:100B38005C23FF0E5D235A2907E15B2905E15C2947
:100B480003E15D29D8B4120080D5000E0101896F38
:100B5800000E886F22EE00F011EE00F0770EDBCF6A
:100B6800E3FFE806FCE2786979697A697B69F8C18C
:100B780056F0F9C157F0000E596E0A0E586E67EC20
:100B880008F056C05EF057C05FF019EC08F0F8C1E5
:100B980056F0F9C157F0000E596E0A0E586EA9ECBE
:100BA80008F056C05EF057C05FF019EC08F0000E70
:100BB8000101916F500E906F9007D8A0910790296E
:100BC800FBE19129D8A4F8D7884B892B88A702D0B4
:100BD8000A0E01D0000E896EF4C156F0F5C157F027
:100BE800000E596E0A0E586E67EC08F056C07CF17C
:100BF80057C07DF1000E896EF4C156F0F5C157F06B
:100C0800000E596E0A0E586EA9EC08F056C07EF117
:100C180057C07FF1000E0101916F500E906F900741
:100C2800D8A091079029FBE19129D8A4F8D77CC1D5
:100C38005EF07DC15FF019EC08F07EC15EF07FC107
:100C48005FF019EC08F0000E0101916F500E906FE3
:100C58009007D8A091079029FBE19129D8A4F8D74B
:100C680088A702D00A0E01D0000E896EF6C156F090
:100C7800F7C157F0000E596E0A0E586E67EC08F06F
:100C880056C080F157C081F1000E896EF6C156F04A
:100C9800F7C157F0000E596E0A0E586EA9EC08F00D
:100CA80056C082F157C083F1000E0101916F500EBA
:100CB800906F9007D8A091079029FBE19129D8A4BB
:100CC800F8D780C15EF081C15FF019EC08F082C1ED
:100CD8005EF083C15FF019EC08F0040E0101916F1A
:100CE800600E906F9007D8A091079029FBE1912999
:100CF800D8A4F8D7000E8F6F000E8E6F8FBF06D066
:100D08008F516AE1060E8E5DD8B066D08EC156F05E
:100D18008FC157F0000E596E140E586E7DEC09F015
:100D2800000E562401018A6F010E57208B6F000EAA
:100D38008D6F000E8C6F8DBF06D08D513AE10A0E73
:100D48008C5DD8B036D08AC1D9FF8BC1DAFFDF50AD
:100D5800896E8AC1D9FF8BC1DAFFDECF60F0DDCFA3
:100D680061F061C060F0616A60508C6E000E856F42
:100D7800280E846F8407D8A085078429FBE185297C
:100D8800D8A4F8D7000E896E000E8C6E000E876FFF
:100D9800280E866F8607D8A087078629FBE1872952
:100DA800D8A4F8D78C4B8D2B020E8A27000E8B23E4
:100DB800C2D7000E916F640E906F9007D8A091076C
:100DC8009029FBE19129D8A4F8D78E4B8F2B8FBFA0
:100DD8009DD78F5101E196D7040E916F600E906FE9
:100DE8009007D8A091079029FBE19129D8B4BFD6E4
:100DF800F7D70000FC03B203250333038B03330347
:100E08002503B203FC038C039E01B30323032102D1
:100E1800110213033303E601C70003003F00F90082
:100E2800D00110031003D001F9003F0003000303B1
:100E3800FF03C0016000300030006000C001FF0304
:100E480003030000000000000000E003900380039B
:100E580000000000000001030302CF03DC00700063
:100E68003800EC00CF03030201031F00110011003A
:100E780011001F00100012001F00100010001C00BD
:100E880015001500150017001000110015001500B9
:100E98001F000700040004001F00040017001500CD
:100EA800150015001D001F001400140014001C007C
:100EB80001000100010001001F001F0015001500BE
:100EC80015001F0007000500050005001F000600AB
:100ED800FACF44F0FBCF45F0E9CF46F0EACF47F030
:100EE800E1CF48F0E2CF49F0D9CF4AF0DACF4BF062
:100EF800F3CF4CF0F4CF4DF0F6CF4EF0F7CF4FF0E4
:100F0800F8CF50F0F5CF51F066C052F067C053F0FB
:100F180068C054F069C055F09DB09EA012D03C0E38
:100F2800CF6EAF0ECE6E9E90644A652A050E641889
:100F38006510D8A406D0000E656E000E646E38ECFD
:100F480009F055C069F054C068F053C067F052C04A
:100F580066F051C0F5FF50C0F8FF4FC0F7FF4EC014
:100F6800F6FF4DC0F4FF4CC0F3FF4BC0DAFF4AC098
:100F7800D9FF49C0E2FF48C0E1FF47C0EAFF46C0C9
:100F8800E9FF45C0FBFF44C0FAFF66921100FA0E64
:100F9800F66E0D0EF76E000EF86E02EE00F010EE13
:100FA800DCF00900F5CFEEFFE550E150FAE1C20EA2
:100FB800F66E110EF76E000EF86E01EE92F010EE5E
:100FC80062F00900F5CFEEFFE550E150FAE1200E9E
:100FD800F66E130EF76E000EF86E00EEECF010EEE3
:100FE80014F00900F5CFEEFFE550E150FAE1B60E36
:100FF800F66E120EF76E000EF86E00EE01F010EEAF
:1010080043F00900F5CFEEFFE550E150FAE10101A8
:10101800F76BF66BF56BF46B656A646A66906692BB
:10102800000EF86E000112EF09F022EE78F010EED3
:1010380080F0630EDBCFE3FFE806FCE25EC056F00B
:101048005FC057F0000E596E0A0E586E7DEC09F01D
:10105800800E56240001E86F000E5720E96F000E3D
:10106800EB6F000EEA6FEBBF06D0EB512BE1050EDC
:10107800EA5DD8B01200E8C0D9FFE9C0DAFFDF5056
:10108800896E000EE56F280EE46FE407D8A0E50727
:10109800E429FBE1E529D8A4F8D7000E896E000EF3
:1010A800E76F280EE66FE607D8A0E707E629FBE119
:1010B800E729D8A4F8D7EA4BEB2B020EE827000E55
:1010C800E923D1D71200000E5B6E59AE06D0586CDA
:1010D800591ED8B0592A010E5B6E57AE06D0566C11
:1010E800571ED8B0572A010E5B1A000E5D6E000E0F
:1010F8005C6E58505910D8B41CD0010E5A6E04D0EA
:10110800D890583659365A2A59AEFAD7D8905C36FC
:101118005D365850565C59505758D8A005D058508D
:10112800565E5950575A5C80D890593258325A2EC8
:10113800EDD75B50D8B404D05C6C5D1ED8B05D2A86
:101148005CC056F05DC057F01200000E5B6E57AEE3
:1011580006D0566C571ED8B0572A010E5B6E59AE92
:1011680004D0586C591ED8B0592A58505910D8B4C0
:1011780018D0010E5A6E04D0D890583659365A2ACB
:1011880059AEFAD75850565C59505758D8A004D081
:101198005850565E5950575AD890593258325A2E8C
:1011A800F1D75B50D8B404D0566C571ED8B0572A24
:1011B80056C056F057C057F0120000000002200138
:1011C800D0007F00A702100100000000000080008E
:1011D800300190007F00970220012000000080006D
:1011E800080188005000BF001703200040000000DD
:1011F80000004001200190007F03570020000000FC
:101208000000000000020001B0027F01370000006A
:10121800000000000100000000000000D388D38A0D
:10122800D38CD08EB50ECD6E3C0ECF6EB00ECE6E7A
:101238009D809F809E90F28E000E0101F96F150E21
:10124800F86F000EF56F000EF46F000E926E000E30
:10125800956E000E8C6E000E896E09EC00F0A9ECFC
:1012680005F0EDEC02F0FFD70101F64BF72B3C0E31
:10127800F619F711D8A41200000EF76F000EF66FDA
:10128800F44BF52B3C0EF419F511D8A41200000EFE
:10129800F56F000EF46FF84BF92B180EF819F911C9
:1012A800D8A41200000EF96F000EF86F1200320079
:1012B80036001C00080008000800080008000800A4
:1012C80008000800080008002A001C000800000C9C
:1012D8001E3E7C3E1E0C00001F15151515070C1030
:1012E8000C070E1111110E1F1010101012151515E4
:0112F80009EC
:1012FA0056505802F3CF5AF0F4CF5BF056505902C9
:10130A00F3505B2657505802F3505B265AC056F0EA
:10131A005BC057F012001F0204081F1C0A090A1CAE
:0A132A001F05050D1203011F01034A
:020000040020DA
:08000000FFFFFFFFFFFFFFFF00
:020000040030CA
:0E000000FF081F1EFF8185FF0FC00FE00F409D
:00000001FF
