:0400000007EF00F016
:10000800418213ED09F073EF09F020EE21F010EEB4
:10001800A0F0090EDBCFE3FFE806FCE222EEACF02D
:1000280010EE80F01F0EDBCFE3FFE806FCE220EEC7
:10003800FBF010EEAAF0040EDBCFE3FFE806FCE2CB
:1000480020EEF6F010EEAFF0040EDBCFE3FFE8068B
:10005800FCE220EEF1F010EEB4F0040EDBCFE3FF8B
:10006800E806FCE220EEECF010EEB9F0040EDBCF6F
:10007800E3FFE806FCE220EEE7F010EEBEF0040E27
:10008800DBCFE3FFE806FCE220EE3AF010EEC3F027
:10009800040EDBCFE3FFE806FCE220EE35F010EEBD
:1000A800C8F0040EDBCFE3FFE806FCE220EE30F0F8
:1000B80010EECDF0040EDBCFE3FFE806FCE220EE05
:1000C8002BF010EED2F0040EDBCFE3FFE806FCE2E3
:1000D800000E0001E06F030EDF6F000EDE6F780E7A
:1000E800DD6FFF0EE46FF10EE36F020ED86F9A0E0C
:1000F800D76F87D2000EE66F000EE56FE6BF08D017
:10010800E65105E1630EE55DD8B04BD201D049D286
:10011800000EE26F000EE16F2DD0040EE127000EF5
:10012800E223040EE127000EE223040EE127000E6D
:10013800E223040EE127000EE223040EE127000E5D
:10014800E223040EE127000EE223040EE127000E4D
:10015800E223040EE127000EE223040EE127000E3D
:10016800E223E107D8A0E207E129FBE1E229D8B4BC
:1001780025D0F7D7E5C013F0E6C014F01450000AF4
:10018800D8A41CD013500A0AD8B4C7D71A0AD8B4AE
:10019800C8D7060AD8B4C9D70A0AD8B4CAD73E0AF3
:1001A800D8B4CBD70A0AD8B4CCD7060AD8B4CDD796
:1001B8001A0AD8B4CED70E0AD8B4CFD7E6BF06D01D
:1001C800E65120E1140EE55DD8B01CD0E6BF1AD088
:1001D800E65104E10F0EE55DD8A014D0F10E136EC0
:1001E800FF0E146EE5C015F0E6C016F01350152684
:1001F80014501622AA0E1524D96E000E1620DA6E97
:10020800DF508912E6BF06D0E65120E11A0EE55DFF
:10021800D8B01CD0E6BF1AD0E65104E1150EE55D52
:10022800D8A014D0EB0E136EFF0E146EE5C015F0B7
:10023800E6C016F01350152614501622AF0E1524DA
:10024800D96E000E1620DA6EDF508912E6BF06D08E
:10025800E65120E1200EE55DD8B01CD0E6BF1AD0EB
:10026800E65104E11B0EE55DD8A014D0E50E136E2F
:10027800FF0E146EE5C015F0E6C016F013501526F3
:1002880014501622B40E1524D96E000E1620DA6EFC
:10029800DF508912E6BF22D0E65104E1210EE55D68
:1002A800D8A01CD0E6BF06D0E65118E1260EE55DC1
:1002B800D8B014D0DF0E136EFF0E146EE5C015F023
:1002C800E6C016F01350152614501622B90E152440
:1002D800D96E000E1620DA6EDF508912E6BF06D0FE
:1002E800E65120E12C0EE55DD8B01CD0E6BF1AD04F
:1002F800E65104E1270EE55DD8A014D0D90E136E9F
:10030800FF0E146EE5C015F0E6C016F01350152662
:1003180014501622BE0E1524D96E000E1620DA6E61
:10032800DF508912E6BF22D0E65104E12D0EE55DCB
:10033800D8A01CD0E6BF06D0E65118E1320EE55D24
:10034800D8B014D0D30E136EFF0E146EE5C015F09E
:10035800E6C016F01350152614501622C30E1524A5
:10036800D96E000E1620DA6EDF508912E6BF22D051
:10037800E65104E1330EE55DD8A01CD0E6BF06D0F7
:10038800E65118E1380EE55DD8B014D0CD0E136EE5
:10039800FF0E146EE5C015F0E6C016F013501526D2
:1003A80014501622C80E1524D96E000E1620DA6EC7
:1003B800DF508912E6BF22D0E65104E1390EE55D2F
:1003C800D8A01CD0E6BF06D0E65118E13E0EE55D88
:1003D800D8B014D0C70E136EFF0E146EE5C015F01A
:1003E800E6C016F01350152614501622CD0E15240B
:1003F800D96E000E1620DA6EDF508912E6BF22D0C1
:10040800E65104E13F0EE55DD8A01CD0E6BF06D05A
:10041800E65118E1440EE55DD8B014D0C10E136E54
:10042800FF0E146EE5C015F0E6C016F01350152641
:1004380014501622D20E1524D96E000E1620DA6E2C
:10044800DF508912E6BF22D0E65104E1570EE55D80
:10045800D8A01CD0E6BF06D0E65118E1610EE55DD4
:10046800D8B014D0A90E136EFF0E146EE5C015F0A7
:10047800E6C016F01350152614501622A00E1524A7
:10048800D96E000E1620DA6EDF508912E351E55D51
:10049800E651800A136EE451800A1358D8A027D079
:1004A800100EE325136E000EE421146E1350E55D63
:1004B800E651800A156E1450800A1558D8B017D026
:1004C800E3C013F0E4C014F0131E141E134A142AD8
:1004D800E5511326E6511422D89013361436800EAF
:1004E8001324D96E000E1420DA6EDF508912630EC1
:1004F800E325136E000EE421146E1350E55DE651FA
:10050800800A156E1450800A1558D8A029D0730E89
:10051800E325136E000EE421146E1350E55DE651D9
:10052800800A156E1450800A1558D8B019D0630E79
:10053800E325136E000EE421146E131E141E134AD5
:10054800142AE5511326E6511422D890133614368E
:10055800800E1324D96E000E1420DA6EDF50891233
:10056800000EDA6F280ED96FD907D8A0DA07D92973
:10057800FBE1DA29D8A4F8D7000E896E000EDC6FEB
:10058800280EDB6FDB07D8A0DC07DB29FBE1DC29C1
:10059800D8A4F8D7E54BE62BE6BFBAD5E65101E17A
:1005A800B1D5300EE319E411D8A404D0000EE06FE1
:1005B800010EDF6F530EE319E411D8A40AD0DD074A
:1005C800D8A0DE07DD51DE11D8B403D0E307D8A0E8
:1005D800E407DF51E327E051E423E4BF12D0E451FC
:1005E80004E1550EE35DD8A00CD0000EDE6F780E46
:1005F800DD6FFF0EE46FF10EE36F000EE06F030E88
:10060800DF6FD707D8A0D807D72903E1D829D8B4EE
:10061800120070D523EE00F011EE00F06B0EDBCF68
:10062800E3FFE806FCE221EEE2F011EE88F0070EA7
:10063800DBCFE3FFE806FCE2000E0101776FA00EB6
:10064800766F000E976F000E966FE80E926F030E8E
:10065800936F000E946F000E956F000E7B6F000E67
:100668007A6F000E7D6F000E7C6F000E6D6F030EAB
:100678006C6F000E796F000E786F000E836F000E9E
:10068800826F020E6F6FBC0E6E6F6ED295BF10D068
:1006980095519411931103E19205D8A009D0E20E67
:1006A8009227FF0E9323FF0E9423FF0E95230CD061
:1006B800000E716F140E706F7007D8A07107702943
:1006C800FBE17129D8A4F8D77C057D11D8A421D0E5
:1006D800000E7D6F000E7C6F0DD0000E8D6F000E2A
:1006E8008C6F000E8F6F000E8E6F8EC18AF18FC1D6
:1006F8008BF10FD096C119F097C11AF01A50000A61
:10070800D8A407D01950030AD8B4EBD7070AD8B42D
:10071800E4D77A517B11D8A419D095BF07D0955149
:100728009411931113E19205D8B010D0000E7B6F8D
:10073800010E7A6F000E7D6F010E7C6F000E926FB6
:10074800000E936F000E946F000E956F000E996F58
:10075800000E986F99BF49D0995105E1040E985D34
:10076800D8B07CD142D07AD1000E916F1C0E906F18
:100778009007D8A091079029FBE19129D8B44DD0D2
:10078800F7D7000E916F0F0E906F9007D8A09107C2
:100798009029FBE19129D8B440D0F7D7000E916F8A
:1007A800000E906F9007D8A091079029FBE191293E
:1007B800D8B433D0F7D7000E916F0A0E906F900718
:1007C800D8A091079029FBE19129D8B426D0F7D772
:1007D800000E916F100E906F9007D8A09107902986
:1007E800FBE19129D8B419D0F7D796C119F097C170
:1007F8001AF01A50000AD8A410D01950000AD8B418
:10080800B3D7010AD8B4BDD7030AD8B4C7D7010AE9
:10081800D8B4D1D7070AD8B4DBD782C113F083C1C3
:1008280014F0000E166E120E156E38EC0BF0000E5A
:1008380013240101846F010E1420856F000E876F49
:10084800000E866F87BF06D087514BE1090E865D83
:10085800D8B047D0D8909835D96E9935DA6E880EC9
:10086800D926010EDA22DE50DE10D8B413D084C1A6
:10087800D9FF85C1DAFFDF50896E84C1D9FF85C1F0
:10088800DAFFDECF19F0DDCF1AF01AC019F01A6AB4
:10089800195003D0000E896E000E8C6E000E736F17
:1008A8003C0E726F7207D8A073077229FBE1732997
:1008B800D8A4F8D7000E896E000E8C6E000E756FE6
:1008C8003C0E746F7407D8A075077429FBE175296D
:1008D800D8A4F8D7864B872B020E8427000E8523D1
:1008E800B1D7E80E7E6F030E7F6F000E806F000E8B
:1008F800816F96059711D8B405D0020E96199711F5
:10090800D8A42AD096059711D8A408D099BF14D096
:10091800995104E1020E985DD8A00ED0020E9619E6
:100928009711D8A411D098519911D8B405D0020EB6
:1009380098199911D8A408D092517E5F93517F5B82
:100948009451805B955171D092517E2793517F23AA
:1009580094518023955143D096519711D8B466D0BD
:10096800040E96199711D8A408D099BF14D099519C
:1009780004E1020E985DD8A00ED0030E96199711C7
:10098800D8A42FD098519911D8B405D0020E98192F
:100998009911D8A426D092C119F093C11AF094C124
:1009A8001BF095C11CF0191E1A1E1B1E1C1E192AAD
:1009B800000E1A221B221C22E80E19241D6E030E9B
:1009C8001A201E6E000E1B201F6E000E1C20206EAB
:1009D8001D507E271E507F231F50802320508123C7
:1009E80025D092C119F093C11AF094C11BF095C19A
:1009F8001CF0191E1A1E1B1E1C1E192A000E1A2274
:100A08001B221C22E80E19241D6E030E1A201E6ECE
:100A1800000E1B201F6E000E1C20206E1D507E5FD6
:100A28001E507F5B1F50805B2050815BFF0E7E272E
:100A3800FF0E7F23FF0E8023FF0E81237E29F6E120
:100A48007F29F4E18029F2E18129D8A4EFD7984BD6
:100A5800992B99BFCAD6995101E180D6784B792B49
:100A68006C51781913E16D517919D8A40FD0000E83
:100A7800796F000E786F824B832B060E82198311D3
:100A8800D8A404D0000E836F000E826F7607D8A01A
:100A98007707762969E17729D8A466D0000E776FA1
:100AA800A00E766FE80E926F030E936F000E946F90
:100AB800000E956F000E7B6F000E7A6F964B972B8A
:100AC80096C113F097C114F0000E166E050E156E40
:100AD8005FEC0AF013C096F114C097F1000E010103
:100AE800996F000E986F99BF06D0995125E1040EB1
:100AF800985DD8B021D0D8909835D96E9935DA6EEE
:100B0800880ED926010EDA22000EDE6E000EDD6E8A
:100B1800984B992BE8D7000E8F6F010E8E6F8EC100
:100B28008AF18FC18BF1000E8D6F010E8C6F000E54
:100B3800896F010E886F18D096C119F097C11AF005
:100B48001A50000AD8A410D01950000AD8B4EFD708
:100B5800010AD8B4E8D7030AD8B4DDD7010AD8B453
:100B6800DAD7070AD8B4DFD76E07D8A06F076E297F
:100B780003E16F29D8B4120089D5000E01019D6FD9
:100B8800000E9C6F21EEACF011EE6AF01B0EDBCF6D
:100B9800E3FFE806FCE222EE00F011EE00F04F0E53
:100BA800DBCFE3FFE806FCE221EEC8F011EE50F0DF
:100BB800190EDBCFE3FFE806FCE2030E876FE80EB1
:100BC800866FDFD1EEC113F0EFC114F0000E166E80
:100BD8000A0E156E1DEC0AF013C01BF014C01CF0B1
:100BE800D1EC09F0EEC113F0EFC114F0000E166E4F
:100BF8000A0E156E5FEC0AF013C01BF014C01CF04F
:100C0800D1EC09F0000E0101AB6F500EAA6FAA07D4
:100C1800D8A0AB07AA29FBE1AB29D8A4F8D79C4BED
:100C28009D2B9CA702D00A0E01D0000E896EEAC146
:100C380013F0EBC114F0000E166E0A0E156E1DECC3
:100C48000AF013C088F114C089F1000E896EEAC158
:100C580013F0EBC114F0000E166E0A0E156E5FEC61
:100C68000AF013C08AF114C08BF1000E0101AB6FBA
:100C7800500EAA6FAA07D8A0AB07AA29FBE1AB2997
:100C8800D8A4F8D788C11BF089C11CF0D1EC09F0B1
:100C98008AC11BF08BC11CF0D1EC09F0000E0101D8
:100CA800AB6F500EAA6FAA07D8A0AB07AA29FBE121
:100CB800AB29D8A4F8D79CA702D00A0E01D0000E01
:100CC800896EECC113F0EDC114F0000E166E0A0E19
:100CD800156E1DEC0AF013C08CF114C08DF1000ED6
:100CE800896EECC113F0EDC114F0000E166E0A0EF9
:100CF800156E5FEC0AF013C08EF114C08FF1000E70
:100D08000101AB6F500EAA6FAA07D8A0AB07AA299A
:100D1800FBE1AB29D8A4F8D78CC11BF08DC11CF01E
:100D2800D1EC09F08EC11BF08FC11CF0D1EC09F099
:100D3800030E0101AB6F5C0EAA6FAA07D8A0AB0720
:100D4800AA29FBE1AB29D8A4F8D76A0EA86F010E2F
:100D5800A96F000E9F6F000E9E6F9FBF06D09F5118
:100D68003CE10E0E9E5DD8B038D0A8C1D9FFA9C10C
:100D7800DAFFDF50896EA8C1D9FFA9C1DAFFDECF3B
:100D88001DF0DDCF1EF01EC01DF01E6A1DBE1E68C0
:100D98001D508C6E000E916F280E906F9007D8A092
:100DA80091079029FBE19129D8A4F8D7000E896E04
:100DB800000E8C6E000E936F280E926F9207D8A0CB
:100DC80093079229FBE19329D8A4F8D79E4B9F2B30
:100DD800020EA827000EA923C0D7000EA76F000E89
:100DE800A66FA7BF06D0A7516CE1040EA65DD8B0C8
:100DF80068D0A6C113F0A7C114F0000E166E140E29
:100E0800156E38EC0BF0000E13240101A86F010ECB
:100E18001420A96F000EA16F000EA06FA1BF06D00D
:100E2800A1513CE10A0EA05DD8B038D0A8C1D9FFC5
:100E3800A9C1DAFFDF50896EA8C1D9FFA9C1DAFFBD
:100E4800DECF1DF0DDCF1EF01EC01DF01E6A1DBED8
:100E58001E681D508C6E000E956F280E946F9407B7
:100E6800D8A095079429FBE19529D8A4F8D7000EB6
:100E7800896E000E8C6E000E976F280E966F96077F
:100E8800D8A097079629FBE19729D8A4F8D7A04BB3
:100E9800A12B020EA827000EA923C0D7000EAB6F06
:100EA800640EAA6FAA07D8A0AB07AA29FBE1AB2951
:100EB800D8A4F8D7A64BA72BA7BF9BD7A75101E16A
:100EC80094D7010EAB6F2C0EAA6FAA07D8A0AB0758
:100ED800AA29FBE1AB29D8A4F8D7500EA26F010EBE
:100EE800A36F000EA56F000EA46FA5BF06D0A55175
:100EF8003CE10D0EA45DD8B038D0A2C1D9FFA3C182
:100F0800DAFFDF50896EA2C1D9FFA3C1DAFFDECFB5
:100F18001DF0DDCF1EF01EC01DF01E6A1DBE1E682E
:100F28001D508C6E000E996F280E986F9807D8A0E8
:100F380099079829FBE19929D8A4F8D7000E896E5A
:100F4800000E8C6E000E9B6F280E9A6F9A07D8A021
:100F58009B079A29FBE19B29D8A4F8D7A44BA52B7A
:100F6800020EA227000EA323C0D7030EAB6F5C0EA0
:100F7800AA6FAA07D8A0AB07AA29FBE1AB29D8A476
:100F8800F8D78607D8A0870786518711D8B41200EA
:100F980019D622EE82F010EE80F0290EDBCFE3FFA7
:100FA800E806FCE2000E0001C16F640EC06F54D069
:100FB800800EB66F000EB76F000EB96F000EB86FD7
:100FC800B9BF06D0B9513CE1150EB85DD8B038D0DC
:100FD800B6C0D9FFB7C0DAFFDF50896EB6C0D9FFF7
:100FE800B7C0DAFFDECF13F0DDCF14F014C013F072
:100FF800146A13BE146813508C6E000EAB6F1E0E6D
:10100800AA6FAA07D8A0AB07AA29FBE1AB29D8A4E5
:10101800F8D7000E8C6E8CCF89FF000EAD6F1E0EB8
:10102800AC6FAC07D8A0AD07AC29FBE1AD29D8A4BB
:10103800F8D7B84BB92B020EB627000EB723C0D786
:10104800290EAF6F9A0EAE6FAE07D8A0AF07AE29C4
:10105800FBE1AF29D8A4F8D7C007D8A0C107C02999
:10106800A7E1C129D8A4A4D7010EC16FF40EC06F9F
:10107800000EBB6F000EBA6F63D0800EBC6F000EFF
:10108800BD6F000EBF6F000EBE6FBFBF06D0BF5151
:101098003CE1150EBE5DD8B038D0BCC0D9FFBDC08C
:1010A800DAFFDF50896EBCC0D9FFBDC0DAFFDECFE2
:1010B80013F0DDCF14F014C013F0146A13BE1468D3
:1010C80013508C6E000EB16F1E0EB06FB007D8A013
:1010D800B107B029FBE1B129D8A4F8D7000E8C6E6E
:1010E8008CCF89FF000EB36F1E0EB26FB207D8A067
:1010F800B307B229FBE1B329D8A4F8D7BE4BBF2B5D
:10110800020EBC27000EBD23C0D7290EB56F900E66
:10111800B46FC0A105D0BA51B427BB51B52304D0D0
:10112800BA51B45FBB51B55B190EBA27000EBB2389
:10113800B407D8A0B507B429FBE1B529D8A4F8D7D6
:10114800C007D8A0C107C02998E1C129D8B42AD7B7
:1011580094D700000000000003000B000700000007
:101168000000000000000303FF030E001800300019
:10117800300018000E00FF0303030003F0037C0295
:101188002E00230023002E007C02F00300038C03B2
:101198009E01330323032102110213033703E601DF
:1011A800C7001F1111111F00001F00001C15151585
:1011B80017101115151F0704041F04171515151D01
:1011C8001F1414141C000101011F1F1515151F07FA
:1011D8000505051F000100000000800120006000D7
:1011E800100124000E0125030E01240010016000E7
:1011F8002000800100000000000100000000320013
:1012080036001C0008000800080008000800080054
:1012180008000800080008002A001C000800060052
:10122800FACF01F0FBCF02F0E9CF03F0EACF04F0E8
:10123800E1CF05F0E2CF06F0D9CF07F0DACF08F01A
:10124800F3CF09F0F4CF0AF0F6CF0BF0F7CF0CF09C
:10125800F8CF0DF0F5CF0EF041C00FF042C010F0FE
:1012680043C011F044C012F09DB09EA012D03C0EB5
:10127800CF6EAF0ECE6E9E903F4A402A050E3F18A5
:101288004010D8A406D0000E406E000E3F6EF6EC5B
:101298000AF012C044F011C043F010C042F00FC071
:1012A80041F00EC0F5FF0DC0F8FF0CC0F7FF0BC0F2
:1012B800F6FF0AC0F4FF09C0F3FF08C0DAFF07C051
:1012C800D9FF06C0E2FF05C0E1FF04C0EAFF03C082
:1012D800E9FF02C0FBFF01C0FAFF419211002E0E88
:1012E800F66E150EF76E000EF86E03EE00F010EEB7
:1012F8006CF00900F5CFEEFFE550E150FAE15A0E27
:10130800F66E110EF76E000EF86E02EE00F010EE9B
:10131800CCF00900F5CFEEFFE550E150FAE1320ECE
:10132800F66E160EF76E000EF86E01EEACF010EECB
:101338003EF00900F5CFEEFFE550E150FAE1B40EBA
:10134800F66E160EF76E000EF86E00EEE7F010EE71
:1013580019F00900F5CFEEFFE550E150FAE1960EDD
:10136800F66E160EF76E000EF86E00EE21F010EE17
:101378001EF00900F5CFEEFFE550E150FAE101015A
:10138800ED6BEC6BEB6BEA6B406A3F6A4190419204
:10139800000EF86E0001CDEF0AF022EE50F010EECC
:1013A80080F0310EDBCFE3FFE806FCE21BC013F050
:1013B8001CC014F0000E166E050E156E38EC0BF0FE
:1013C800800E13240001B66F000E1420B76F000EB4
:1013D800B96F000EB86FB9BF06D0B95129E1050E33
:1013E800B85DD8B01200B6C0D9FFB7C0DAFFDF5079
:1013F800896E000EB36F280EB26FB207D8A0B3077C
:10140800B229FBE1B329D8A4F8D7000E896E000EE3
:10141800B56F280EB46FB407D8A0B507B429FBE19F
:10142800B529D8A4F8D7B84BB92BB64BB72BD3D717
:101438001200000E186E16AE06D0156C161ED8B027
:10144800162A010E186E14AE06D0136C141ED8B0EE
:10145800142A010E181A000E1A6E000E196E155075
:101468001610D8B41CD0010E176E04D0D8901536BB
:101478001636172A16AEFAD7D89019361A361550D6
:10148800135C16501458D8A005D01550135E16508A
:10149800145A1980D89016321532172EEDD71850D5
:1014A800D8B404D0196C1A1ED8B01A2A19C013F06F
:1014B8001AC014F01200000E186E14AE06D0136C89
:1014C800141ED8B0142A010E186E16AE04D0156C6E
:1014D800161ED8B0162A15501610D8B418D0010EFA
:1014E800176E04D0D89015361636172A16AEFAD7C6
:1014F8001550135C16501458D8A004D01550135E1C
:101508001650145AD89016321532172EF1D7185093
:10151800D8B404D0136C141ED8B0142A13C013F016
:1015280014C014F01200000000022001D0007F0057
:10153800A7021001000000000000800030019000A8
:101548007F00970220012000000080000801880029
:101558005000BF00170320004000000000004001B9
:10156800200190007F0357002000000000000000C9
:1015780000020001B0027F013700000000000000F7
:1015880000020001800050007F00D70120011000F8
:101598000000D388D38AD38CD08EB50ECD6E3C0E86
:1015A800CF6EB00ECE6E9D809F809E90F28E000E04
:1015B8000101EF6F150EEE6F000EEB6F000EEA6F74
:1015C800000E926E000E956E000E8C6E000E896EE7
:1015D800CDEC07F0C1EC05F00EEC03F009EC00F0DF
:1015E800F9D7FFD70101EC4BED2B3C0EEC19ED11AF
:1015F800D8A41200000EED6F000EEC6FEA4BEB2B37
:101608003C0EEA19EB11D8A41200000EEB6F000E85
:10161800EA6FEE4BEF2B180EEE19EF11D8A412005B
:10162800000EEF6F000EEE6F1200000200020303BF
:101638000101CF01DC0070003800EC00CF0101038C
:10164800030200020002FE000701370236023702D9
:101658008602860287023602370237020701FE0039
:10166800010000000000000013501502F3CF17F02E
:10167800F4CF18F013501602F35018261450150220
:10168800F350182617C013F018C014F01200000CFD
:101698001E3E7C3E1E0C00001F15151515070C106C
:1016A8000C070E1111110E1F101010101215151520
:1016B800091F0204081F1C0A090A1C1F05050D1230
:0516C80003011F0103F6
:020000040020DA
:08000000FFFFFFFFFFFFFFFF00
:020000040030CA
:0E000000FF081F1EFF8185FF0FC00FE00F409D
:00000001FF
